{
  "contractName": "WineProducer",
  "abi": [
    {
      "inputs": [
        {
          "internalType": "contract WineNFT",
          "name": "_wineNFT",
          "type": "address"
        }
      ],
      "stateMutability": "nonpayable",
      "type": "constructor"
    },
    {
      "inputs": [],
      "name": "wineNFT",
      "outputs": [
        {
          "internalType": "contract WineNFT",
          "name": "",
          "type": "address"
        }
      ],
      "stateMutability": "view",
      "type": "function"
    },
    {
      "inputs": [
        {
          "internalType": "uint256",
          "name": "price",
          "type": "uint256"
        },
        {
          "internalType": "uint16",
          "name": "vintage",
          "type": "uint16"
        },
        {
          "internalType": "string",
          "name": "grapeVariety",
          "type": "string"
        },
        {
          "internalType": "uint16",
          "name": "numberOfBottles",
          "type": "uint16"
        },
        {
          "internalType": "uint256",
          "name": "maturityDate",
          "type": "uint256"
        }
      ],
      "name": "createWineNFT",
      "outputs": [],
      "stateMutability": "nonpayable",
      "type": "function"
    }
  ],
  "bytecode": "0x608060405234801561000f575f5ffd5b506040516106b43803806106b4833981810160405281019061003191906100e5565b805f5f6101000a81548173ffffffffffffffffffffffffffffffffffffffff021916908373ffffffffffffffffffffffffffffffffffffffff16021790555050610110565b5f5ffd5b5f73ffffffffffffffffffffffffffffffffffffffff82169050919050565b5f6100a38261007a565b9050919050565b5f6100b482610099565b9050919050565b6100c4816100aa565b81146100ce575f5ffd5b50565b5f815190506100df816100bb565b92915050565b5f602082840312156100fa576100f9610076565b5b5f610107848285016100d1565b91505092915050565b6105978061011d5f395ff3fe608060405234801561000f575f5ffd5b5060043610610034575f3560e01c806315b7b9c614610038578063bc86489214610054575b5f5ffd5b610052600480360381019061004d91906102f8565b610072565b005b61005c61011d565b6040516100699190610405565b60405180910390f35b5f5f9054906101000a900473ffffffffffffffffffffffffffffffffffffffff1673ffffffffffffffffffffffffffffffffffffffff166361558c543387878787876040518763ffffffff1660e01b81526004016100d5969594939291906104bc565b6020604051808303815f875af11580156100f1573d5f5f3e3d5ffd5b505050506040513d601f19601f820116820180604052508101906101159190610536565b505050505050565b5f5f9054906101000a900473ffffffffffffffffffffffffffffffffffffffff1681565b5f604051905090565b5f5ffd5b5f5ffd5b5f819050919050565b61016481610152565b811461016e575f5ffd5b50565b5f8135905061017f8161015b565b92915050565b5f61ffff82169050919050565b61019b81610185565b81146101a5575f5ffd5b50565b5f813590506101b681610192565b92915050565b5f5ffd5b5f5ffd5b5f601f19601f8301169050919050565b7f4e487b71000000000000000000000000000000000000000000000000000000005f52604160045260245ffd5b61020a826101c4565b810181811067ffffffffffffffff82111715610229576102286101d4565b5b80604052505050565b5f61023b610141565b90506102478282610201565b919050565b5f67ffffffffffffffff821115610266576102656101d4565b5b61026f826101c4565b9050602081019050919050565b828183375f83830152505050565b5f61029c6102978461024c565b610232565b9050828152602081018484840111156102b8576102b76101c0565b5b6102c384828561027c565b509392505050565b5f82601f8301126102df576102de6101bc565b5b81356102ef84826020860161028a565b91505092915050565b5f5f5f5f5f60a086880312156103115761031061014a565b5b5f61031e88828901610171565b955050602061032f888289016101a8565b945050604086013567ffffffffffffffff8111156103505761034f61014e565b5b61035c888289016102cb565b935050606061036d888289016101a8565b925050608061037e88828901610171565b9150509295509295909350565b5f73ffffffffffffffffffffffffffffffffffffffff82169050919050565b5f819050919050565b5f6103cd6103c86103c38461038b565b6103aa565b61038b565b9050919050565b5f6103de826103b3565b9050919050565b5f6103ef826103d4565b9050919050565b6103ff816103e5565b82525050565b5f6020820190506104185f8301846103f6565b92915050565b5f6104288261038b565b9050919050565b6104388161041e565b82525050565b61044781610152565b82525050565b61045681610185565b82525050565b5f81519050919050565b5f82825260208201905092915050565b8281835e5f83830152505050565b5f61048e8261045c565b6104988185610466565b93506104a8818560208601610476565b6104b1816101c4565b840191505092915050565b5f60c0820190506104cf5f83018961042f565b6104dc602083018861043e565b6104e9604083018761044d565b81810360608301526104fb8186610484565b905061050a608083018561044d565b61051760a083018461043e565b979650505050505050565b5f815190506105308161015b565b92915050565b5f6020828403121561054b5761054a61014a565b5b5f61055884828501610522565b9150509291505056fea264697066735822122089eb13fdf10eed0a23c8da92527c5b94caff69fe6b6c960ce44a1ba62427277464736f6c634300081c0033",
  "immutableReferences": {},
  "source": "pragma solidity ^0.8.0;\n\nimport \"./WineNFT.sol\";\n\ncontract WineProducer {\n    WineNFT public wineNFT;\n\n    constructor(WineNFT _wineNFT) {\n        wineNFT = _wineNFT;\n    }\n\n    function createWineNFT(\n        uint256 price,\n        uint16 vintage,\n        string memory grapeVariety,\n        uint16 numberOfBottles,\n        uint256 maturityDate\n    ) public {\n        wineNFT.mintWine(msg.sender, price, vintage, grapeVariety, numberOfBottles, maturityDate);\n    }\n}\n",
  "sourcePath": "/Users/brennanlee/Desktop/vin-futures-solidity/contracts/WineProducer.sol",
  "compiler": {
    "name": "solc",
    "version": "0.8.28+commit.7893614a.Emscripten.clang"
  },
  "schemaVersion": "3.4.16",
  "updatedAt": "2024-10-22T12:59:11.418Z",
  "devdoc": {
    "kind": "dev",
    "methods": {},
    "version": 1
  },
  "userdoc": {
    "kind": "user",
    "methods": {},
    "version": 1
  }
}