{
  "contractName": "WineNFT",
  "abi": [
    {
      "inputs": [
        {
          "internalType": "address",
          "name": "initialOwner",
          "type": "address"
        }
      ],
      "stateMutability": "nonpayable",
      "type": "constructor"
    },
    {
      "inputs": [
        {
          "internalType": "address",
          "name": "sender",
          "type": "address"
        },
        {
          "internalType": "uint256",
          "name": "tokenId",
          "type": "uint256"
        },
        {
          "internalType": "address",
          "name": "owner",
          "type": "address"
        }
      ],
      "name": "ERC721IncorrectOwner",
      "type": "error"
    },
    {
      "inputs": [
        {
          "internalType": "address",
          "name": "operator",
          "type": "address"
        },
        {
          "internalType": "uint256",
          "name": "tokenId",
          "type": "uint256"
        }
      ],
      "name": "ERC721InsufficientApproval",
      "type": "error"
    },
    {
      "inputs": [
        {
          "internalType": "address",
          "name": "approver",
          "type": "address"
        }
      ],
      "name": "ERC721InvalidApprover",
      "type": "error"
    },
    {
      "inputs": [
        {
          "internalType": "address",
          "name": "operator",
          "type": "address"
        }
      ],
      "name": "ERC721InvalidOperator",
      "type": "error"
    },
    {
      "inputs": [
        {
          "internalType": "address",
          "name": "owner",
          "type": "address"
        }
      ],
      "name": "ERC721InvalidOwner",
      "type": "error"
    },
    {
      "inputs": [
        {
          "internalType": "address",
          "name": "receiver",
          "type": "address"
        }
      ],
      "name": "ERC721InvalidReceiver",
      "type": "error"
    },
    {
      "inputs": [
        {
          "internalType": "address",
          "name": "sender",
          "type": "address"
        }
      ],
      "name": "ERC721InvalidSender",
      "type": "error"
    },
    {
      "inputs": [
        {
          "internalType": "uint256",
          "name": "tokenId",
          "type": "uint256"
        }
      ],
      "name": "ERC721NonexistentToken",
      "type": "error"
    },
    {
      "inputs": [
        {
          "internalType": "address",
          "name": "owner",
          "type": "address"
        }
      ],
      "name": "OwnableInvalidOwner",
      "type": "error"
    },
    {
      "inputs": [
        {
          "internalType": "address",
          "name": "account",
          "type": "address"
        }
      ],
      "name": "OwnableUnauthorizedAccount",
      "type": "error"
    },
    {
      "anonymous": false,
      "inputs": [
        {
          "indexed": true,
          "internalType": "address",
          "name": "owner",
          "type": "address"
        },
        {
          "indexed": true,
          "internalType": "address",
          "name": "approved",
          "type": "address"
        },
        {
          "indexed": true,
          "internalType": "uint256",
          "name": "tokenId",
          "type": "uint256"
        }
      ],
      "name": "Approval",
      "type": "event"
    },
    {
      "anonymous": false,
      "inputs": [
        {
          "indexed": true,
          "internalType": "address",
          "name": "owner",
          "type": "address"
        },
        {
          "indexed": true,
          "internalType": "address",
          "name": "operator",
          "type": "address"
        },
        {
          "indexed": false,
          "internalType": "bool",
          "name": "approved",
          "type": "bool"
        }
      ],
      "name": "ApprovalForAll",
      "type": "event"
    },
    {
      "anonymous": false,
      "inputs": [
        {
          "indexed": true,
          "internalType": "address",
          "name": "previousOwner",
          "type": "address"
        },
        {
          "indexed": true,
          "internalType": "address",
          "name": "newOwner",
          "type": "address"
        }
      ],
      "name": "OwnershipTransferred",
      "type": "event"
    },
    {
      "anonymous": false,
      "inputs": [
        {
          "indexed": true,
          "internalType": "address",
          "name": "from",
          "type": "address"
        },
        {
          "indexed": true,
          "internalType": "address",
          "name": "to",
          "type": "address"
        },
        {
          "indexed": true,
          "internalType": "uint256",
          "name": "tokenId",
          "type": "uint256"
        }
      ],
      "name": "Transfer",
      "type": "event"
    },
    {
      "inputs": [
        {
          "internalType": "address",
          "name": "to",
          "type": "address"
        },
        {
          "internalType": "uint256",
          "name": "tokenId",
          "type": "uint256"
        }
      ],
      "name": "approve",
      "outputs": [],
      "stateMutability": "nonpayable",
      "type": "function"
    },
    {
      "inputs": [
        {
          "internalType": "address",
          "name": "owner",
          "type": "address"
        }
      ],
      "name": "balanceOf",
      "outputs": [
        {
          "internalType": "uint256",
          "name": "",
          "type": "uint256"
        }
      ],
      "stateMutability": "view",
      "type": "function"
    },
    {
      "inputs": [
        {
          "internalType": "uint256",
          "name": "tokenId",
          "type": "uint256"
        }
      ],
      "name": "getApproved",
      "outputs": [
        {
          "internalType": "address",
          "name": "",
          "type": "address"
        }
      ],
      "stateMutability": "view",
      "type": "function"
    },
    {
      "inputs": [
        {
          "internalType": "address",
          "name": "owner",
          "type": "address"
        },
        {
          "internalType": "address",
          "name": "operator",
          "type": "address"
        }
      ],
      "name": "isApprovedForAll",
      "outputs": [
        {
          "internalType": "bool",
          "name": "",
          "type": "bool"
        }
      ],
      "stateMutability": "view",
      "type": "function"
    },
    {
      "inputs": [],
      "name": "name",
      "outputs": [
        {
          "internalType": "string",
          "name": "",
          "type": "string"
        }
      ],
      "stateMutability": "view",
      "type": "function"
    },
    {
      "inputs": [],
      "name": "owner",
      "outputs": [
        {
          "internalType": "address",
          "name": "",
          "type": "address"
        }
      ],
      "stateMutability": "view",
      "type": "function"
    },
    {
      "inputs": [
        {
          "internalType": "uint256",
          "name": "tokenId",
          "type": "uint256"
        }
      ],
      "name": "ownerOf",
      "outputs": [
        {
          "internalType": "address",
          "name": "",
          "type": "address"
        }
      ],
      "stateMutability": "view",
      "type": "function"
    },
    {
      "inputs": [],
      "name": "renounceOwnership",
      "outputs": [],
      "stateMutability": "nonpayable",
      "type": "function"
    },
    {
      "inputs": [
        {
          "internalType": "address",
          "name": "from",
          "type": "address"
        },
        {
          "internalType": "address",
          "name": "to",
          "type": "address"
        },
        {
          "internalType": "uint256",
          "name": "tokenId",
          "type": "uint256"
        }
      ],
      "name": "safeTransferFrom",
      "outputs": [],
      "stateMutability": "nonpayable",
      "type": "function"
    },
    {
      "inputs": [
        {
          "internalType": "address",
          "name": "from",
          "type": "address"
        },
        {
          "internalType": "address",
          "name": "to",
          "type": "address"
        },
        {
          "internalType": "uint256",
          "name": "tokenId",
          "type": "uint256"
        },
        {
          "internalType": "bytes",
          "name": "data",
          "type": "bytes"
        }
      ],
      "name": "safeTransferFrom",
      "outputs": [],
      "stateMutability": "nonpayable",
      "type": "function"
    },
    {
      "inputs": [
        {
          "internalType": "address",
          "name": "operator",
          "type": "address"
        },
        {
          "internalType": "bool",
          "name": "approved",
          "type": "bool"
        }
      ],
      "name": "setApprovalForAll",
      "outputs": [],
      "stateMutability": "nonpayable",
      "type": "function"
    },
    {
      "inputs": [
        {
          "internalType": "bytes4",
          "name": "interfaceId",
          "type": "bytes4"
        }
      ],
      "name": "supportsInterface",
      "outputs": [
        {
          "internalType": "bool",
          "name": "",
          "type": "bool"
        }
      ],
      "stateMutability": "view",
      "type": "function"
    },
    {
      "inputs": [],
      "name": "symbol",
      "outputs": [
        {
          "internalType": "string",
          "name": "",
          "type": "string"
        }
      ],
      "stateMutability": "view",
      "type": "function"
    },
    {
      "inputs": [
        {
          "internalType": "uint256",
          "name": "tokenId",
          "type": "uint256"
        }
      ],
      "name": "tokenURI",
      "outputs": [
        {
          "internalType": "string",
          "name": "",
          "type": "string"
        }
      ],
      "stateMutability": "view",
      "type": "function"
    },
    {
      "inputs": [
        {
          "internalType": "address",
          "name": "from",
          "type": "address"
        },
        {
          "internalType": "address",
          "name": "to",
          "type": "address"
        },
        {
          "internalType": "uint256",
          "name": "tokenId",
          "type": "uint256"
        }
      ],
      "name": "transferFrom",
      "outputs": [],
      "stateMutability": "nonpayable",
      "type": "function"
    },
    {
      "inputs": [
        {
          "internalType": "address",
          "name": "newOwner",
          "type": "address"
        }
      ],
      "name": "transferOwnership",
      "outputs": [],
      "stateMutability": "nonpayable",
      "type": "function"
    },
    {
      "inputs": [
        {
          "internalType": "uint256",
          "name": "",
          "type": "uint256"
        }
      ],
      "name": "wines",
      "outputs": [
        {
          "internalType": "uint256",
          "name": "tokenId",
          "type": "uint256"
        },
        {
          "internalType": "address",
          "name": "producer",
          "type": "address"
        },
        {
          "internalType": "uint256",
          "name": "price",
          "type": "uint256"
        },
        {
          "internalType": "uint16",
          "name": "vintage",
          "type": "uint16"
        },
        {
          "internalType": "string",
          "name": "grapeVariety",
          "type": "string"
        },
        {
          "internalType": "uint16",
          "name": "numberOfBottles",
          "type": "uint16"
        },
        {
          "internalType": "uint256",
          "name": "maturityDate",
          "type": "uint256"
        },
        {
          "internalType": "bool",
          "name": "redeemed",
          "type": "bool"
        }
      ],
      "stateMutability": "view",
      "type": "function"
    },
    {
      "inputs": [
        {
          "internalType": "address",
          "name": "producer",
          "type": "address"
        },
        {
          "internalType": "uint256",
          "name": "price",
          "type": "uint256"
        },
        {
          "internalType": "uint16",
          "name": "vintage",
          "type": "uint16"
        },
        {
          "internalType": "string",
          "name": "grapeVariety",
          "type": "string"
        },
        {
          "internalType": "uint16",
          "name": "numberOfBottles",
          "type": "uint16"
        },
        {
          "internalType": "uint256",
          "name": "maturityDate",
          "type": "uint256"
        }
      ],
      "name": "mintWine",
      "outputs": [
        {
          "internalType": "uint256",
          "name": "",
          "type": "uint256"
        }
      ],
      "stateMutability": "nonpayable",
      "type": "function"
    },
    {
      "inputs": [
        {
          "internalType": "uint256",
          "name": "tokenId",
          "type": "uint256"
        }
      ],
      "name": "burnWine",
      "outputs": [],
      "stateMutability": "nonpayable",
      "type": "function"
    }
  ],
  "bytecode": "0x608060405234801561000f575f5ffd5b50604051612eb4380380612eb483398181016040528101906100319190610266565b806040518060400160405280600881526020017f57696e65204e46540000000000000000000000000000000000000000000000008152506040518060400160405280600481526020017f57494e4500000000000000000000000000000000000000000000000000000000815250815f90816100ac91906104ce565b5080600190816100bc91906104ce565b5050505f73ffffffffffffffffffffffffffffffffffffffff168173ffffffffffffffffffffffffffffffffffffffff160361012f575f6040517f1e4fbdf700000000000000000000000000000000000000000000000000000000815260040161012691906105ac565b60405180910390fd5b61013e8161014560201b60201c565b50506105c5565b5f60065f9054906101000a900473ffffffffffffffffffffffffffffffffffffffff1690508160065f6101000a81548173ffffffffffffffffffffffffffffffffffffffff021916908373ffffffffffffffffffffffffffffffffffffffff1602179055508173ffffffffffffffffffffffffffffffffffffffff168173ffffffffffffffffffffffffffffffffffffffff167f8be0079c531659141344cd1fd0a4f28419497f9722a3daafe3b4186f6b6457e060405160405180910390a35050565b5f5ffd5b5f73ffffffffffffffffffffffffffffffffffffffff82169050919050565b5f6102358261020c565b9050919050565b6102458161022b565b811461024f575f5ffd5b50565b5f815190506102608161023c565b92915050565b5f6020828403121561027b5761027a610208565b5b5f61028884828501610252565b91505092915050565b5f81519050919050565b7f4e487b71000000000000000000000000000000000000000000000000000000005f52604160045260245ffd5b7f4e487b71000000000000000000000000000000000000000000000000000000005f52602260045260245ffd5b5f600282049050600182168061030c57607f821691505b60208210810361031f5761031e6102c8565b5b50919050565b5f819050815f5260205f209050919050565b5f6020601f8301049050919050565b5f82821b905092915050565b5f600883026103817fffffffffffffffffffffffffffffffffffffffffffffffffffffffffffffffff82610346565b61038b8683610346565b95508019841693508086168417925050509392505050565b5f819050919050565b5f819050919050565b5f6103cf6103ca6103c5846103a3565b6103ac565b6103a3565b9050919050565b5f819050919050565b6103e8836103b5565b6103fc6103f4826103d6565b848454610352565b825550505050565b5f5f905090565b610413610404565b61041e8184846103df565b505050565b5b81811015610441576104365f8261040b565b600181019050610424565b5050565b601f8211156104865761045781610325565b61046084610337565b8101602085101561046f578190505b61048361047b85610337565b830182610423565b50505b505050565b5f82821c905092915050565b5f6104a65f198460080261048b565b1980831691505092915050565b5f6104be8383610497565b9150826002028217905092915050565b6104d782610291565b67ffffffffffffffff8111156104f0576104ef61029b565b5b6104fa82546102f5565b610505828285610445565b5f60209050601f831160018114610536575f8415610524578287015190505b61052e85826104b3565b865550610595565b601f19841661054486610325565b5f5b8281101561056b57848901518255600182019150602085019450602081019050610546565b868310156105885784890151610584601f891682610497565b8355505b6001600288020188555050505b505050505050565b6105a68161022b565b82525050565b5f6020820190506105bf5f83018461059d565b92915050565b6128e2806105d25f395ff3fe608060405234801561000f575f5ffd5b506004361061011f575f3560e01c806370a08231116100ab578063a45aac711161006f578063a45aac711461031e578063b88d4fde1461033a578063c87b56dd14610356578063e985e9c514610386578063f2fde38b146103b65761011f565b806370a082311461028c578063715018a6146102bc5780638da5cb5b146102c657806395d89b41146102e4578063a22cb465146103025761011f565b806313351db3116100f257806313351db3146101bd57806323b872dd146101f457806342842e0e1461021057806361558c541461022c5780636352211e1461025c5761011f565b806301ffc9a71461012357806306fdde0314610153578063081812fc14610171578063095ea7b3146101a1575b5f5ffd5b61013d60048036038101906101389190611c9e565b6103d2565b60405161014a9190611ce3565b60405180910390f35b61015b6104b3565b6040516101689190611d6c565b60405180910390f35b61018b60048036038101906101869190611dbf565b610542565b6040516101989190611e29565b60405180910390f35b6101bb60048036038101906101b69190611e6c565b61055d565b005b6101d760048036038101906101d29190611dbf565b610573565b6040516101eb989796959493929190611ed5565b60405180910390f35b61020e60048036038101906102099190611f58565b610682565b005b61022a60048036038101906102259190611f58565b610781565b005b610246600480360381019061024191906120fe565b6107a0565b60405161025391906121a3565b60405180910390f35b61027660048036038101906102719190611dbf565b610923565b6040516102839190611e29565b60405180910390f35b6102a660048036038101906102a191906121bc565b610934565b6040516102b391906121a3565b60405180910390f35b6102c46109ea565b005b6102ce6109fd565b6040516102db9190611e29565b60405180910390f35b6102ec610a25565b6040516102f99190611d6c565b60405180910390f35b61031c60048036038101906103179190612211565b610ab5565b005b61033860048036038101906103339190611dbf565b610acb565b005b610354600480360381019061034f91906122ed565b610b77565b005b610370600480360381019061036b9190611dbf565b610b9c565b60405161037d9190611d6c565b60405180910390f35b6103a0600480360381019061039b919061236d565b610c02565b6040516103ad9190611ce3565b60405180910390f35b6103d060048036038101906103cb91906121bc565b610c90565b005b5f7f80ac58cd000000000000000000000000000000000000000000000000000000007bffffffffffffffffffffffffffffffffffffffffffffffffffffffff1916827bffffffffffffffffffffffffffffffffffffffffffffffffffffffff1916148061049c57507f5b5e139f000000000000000000000000000000000000000000000000000000007bffffffffffffffffffffffffffffffffffffffffffffffffffffffff1916827bffffffffffffffffffffffffffffffffffffffffffffffffffffffff1916145b806104ac57506104ab82610d14565b5b9050919050565b60605f80546104c1906123d8565b80601f01602080910402602001604051908101604052809291908181526020018280546104ed906123d8565b80156105385780601f1061050f57610100808354040283529160200191610538565b820191905f5260205f20905b81548152906001019060200180831161051b57829003601f168201915b5050505050905090565b5f61054c82610d7d565b5061055682610e03565b9050919050565b61056f828261056a610e3c565b610e43565b5050565b6008602052805f5260405f205f91509050805f015490806001015f9054906101000a900473ffffffffffffffffffffffffffffffffffffffff1690806002015490806003015f9054906101000a900461ffff16908060040180546105d6906123d8565b80601f0160208091040260200160405190810160405280929190818152602001828054610602906123d8565b801561064d5780601f106106245761010080835404028352916020019161064d565b820191905f5260205f20905b81548152906001019060200180831161063057829003601f168201915b505050505090806005015f9054906101000a900461ffff1690806006015490806007015f9054906101000a900460ff16905088565b5f73ffffffffffffffffffffffffffffffffffffffff168273ffffffffffffffffffffffffffffffffffffffff16036106f2575f6040517f64a0ae920000000000000000000000000000000000000000000000000000000081526004016106e99190611e29565b60405180910390fd5b5f6107058383610700610e3c565b610e55565b90508373ffffffffffffffffffffffffffffffffffffffff168173ffffffffffffffffffffffffffffffffffffffff161461077b578382826040517f64283d7b00000000000000000000000000000000000000000000000000000000815260040161077293929190612408565b60405180910390fd5b50505050565b61079b83838360405180602001604052805f815250610b77565b505050565b5f6107a9611060565b5f60075f8154809291906107bc9061246a565b9190505590506107cc88826110e7565b6040518061010001604052808281526020018973ffffffffffffffffffffffffffffffffffffffff1681526020018881526020018761ffff1681526020018681526020018561ffff1681526020018481526020015f151581525060085f8381526020019081526020015f205f820151815f01556020820151816001015f6101000a81548173ffffffffffffffffffffffffffffffffffffffff021916908373ffffffffffffffffffffffffffffffffffffffff160217905550604082015181600201556060820151816003015f6101000a81548161ffff021916908361ffff16021790555060808201518160040190816108c69190612651565b5060a0820151816005015f6101000a81548161ffff021916908361ffff16021790555060c0820151816006015560e0820151816007015f6101000a81548160ff021916908315150217905550905050809150509695505050505050565b5f61092d82610d7d565b9050919050565b5f5f73ffffffffffffffffffffffffffffffffffffffff168273ffffffffffffffffffffffffffffffffffffffff16036109a5575f6040517f89c62b6400000000000000000000000000000000000000000000000000000000815260040161099c9190611e29565b60405180910390fd5b60035f8373ffffffffffffffffffffffffffffffffffffffff1673ffffffffffffffffffffffffffffffffffffffff1681526020019081526020015f20549050919050565b6109f2611060565b6109fb5f6111da565b565b5f60065f9054906101000a900473ffffffffffffffffffffffffffffffffffffffff16905090565b606060018054610a34906123d8565b80601f0160208091040260200160405190810160405280929190818152602001828054610a60906123d8565b8015610aab5780601f10610a8257610100808354040283529160200191610aab565b820191905f5260205f20905b815481529060010190602001808311610a8e57829003601f168201915b5050505050905090565b610ac7610ac0610e3c565b838361129d565b5050565b610ad3611060565b610adc81611406565b60085f8281526020019081526020015f205f5f82015f9055600182015f6101000a81549073ffffffffffffffffffffffffffffffffffffffff0219169055600282015f9055600382015f6101000a81549061ffff0219169055600482015f610b449190611be0565b600582015f6101000a81549061ffff0219169055600682015f9055600782015f6101000a81549060ff0219169055505050565b610b82848484610682565b610b96610b8d610e3c565b85858585611488565b50505050565b6060610ba782610d7d565b505f610bb1611634565b90505f815111610bcf5760405180602001604052805f815250610bfa565b80610bd98461164a565b604051602001610bea92919061275a565b6040516020818303038152906040525b915050919050565b5f60055f8473ffffffffffffffffffffffffffffffffffffffff1673ffffffffffffffffffffffffffffffffffffffff1681526020019081526020015f205f8373ffffffffffffffffffffffffffffffffffffffff1673ffffffffffffffffffffffffffffffffffffffff1681526020019081526020015f205f9054906101000a900460ff16905092915050565b610c98611060565b5f73ffffffffffffffffffffffffffffffffffffffff168173ffffffffffffffffffffffffffffffffffffffff1603610d08575f6040517f1e4fbdf7000000000000000000000000000000000000000000000000000000008152600401610cff9190611e29565b60405180910390fd5b610d11816111da565b50565b5f7f01ffc9a7000000000000000000000000000000000000000000000000000000007bffffffffffffffffffffffffffffffffffffffffffffffffffffffff1916827bffffffffffffffffffffffffffffffffffffffffffffffffffffffff1916149050919050565b5f5f610d8883611714565b90505f73ffffffffffffffffffffffffffffffffffffffff168173ffffffffffffffffffffffffffffffffffffffff1603610dfa57826040517f7e273289000000000000000000000000000000000000000000000000000000008152600401610df191906121a3565b60405180910390fd5b80915050919050565b5f60045f8381526020019081526020015f205f9054906101000a900473ffffffffffffffffffffffffffffffffffffffff169050919050565b5f33905090565b610e50838383600161174d565b505050565b5f5f610e6084611714565b90505f73ffffffffffffffffffffffffffffffffffffffff168373ffffffffffffffffffffffffffffffffffffffff1614610ea157610ea081848661190c565b5b5f73ffffffffffffffffffffffffffffffffffffffff168173ffffffffffffffffffffffffffffffffffffffff1614610f2c57610ee05f855f5f61174d565b600160035f8373ffffffffffffffffffffffffffffffffffffffff1673ffffffffffffffffffffffffffffffffffffffff1681526020019081526020015f205f82825403925050819055505b5f73ffffffffffffffffffffffffffffffffffffffff168573ffffffffffffffffffffffffffffffffffffffff1614610fab57600160035f8773ffffffffffffffffffffffffffffffffffffffff1673ffffffffffffffffffffffffffffffffffffffff1681526020019081526020015f205f82825401925050819055505b8460025f8681526020019081526020015f205f6101000a81548173ffffffffffffffffffffffffffffffffffffffff021916908373ffffffffffffffffffffffffffffffffffffffff160217905550838573ffffffffffffffffffffffffffffffffffffffff168273ffffffffffffffffffffffffffffffffffffffff167fddf252ad1be2c89b69c2b068fc378daa952ba7f163c4a11628f55a4df523b3ef60405160405180910390a4809150509392505050565b611068610e3c565b73ffffffffffffffffffffffffffffffffffffffff166110866109fd565b73ffffffffffffffffffffffffffffffffffffffff16146110e5576110a9610e3c565b6040517f118cdaa70000000000000000000000000000000000000000000000000000000081526004016110dc9190611e29565b60405180910390fd5b565b5f73ffffffffffffffffffffffffffffffffffffffff168273ffffffffffffffffffffffffffffffffffffffff1603611157575f6040517f64a0ae9200000000000000000000000000000000000000000000000000000000815260040161114e9190611e29565b60405180910390fd5b5f61116383835f610e55565b90505f73ffffffffffffffffffffffffffffffffffffffff168173ffffffffffffffffffffffffffffffffffffffff16146111d5575f6040517f73c6ac6e0000000000000000000000000000000000000000000000000000000081526004016111cc9190611e29565b60405180910390fd5b505050565b5f60065f9054906101000a900473ffffffffffffffffffffffffffffffffffffffff1690508160065f6101000a81548173ffffffffffffffffffffffffffffffffffffffff021916908373ffffffffffffffffffffffffffffffffffffffff1602179055508173ffffffffffffffffffffffffffffffffffffffff168173ffffffffffffffffffffffffffffffffffffffff167f8be0079c531659141344cd1fd0a4f28419497f9722a3daafe3b4186f6b6457e060405160405180910390a35050565b5f73ffffffffffffffffffffffffffffffffffffffff168273ffffffffffffffffffffffffffffffffffffffff160361130d57816040517f5b08ba180000000000000000000000000000000000000000000000000000000081526004016113049190611e29565b60405180910390fd5b8060055f8573ffffffffffffffffffffffffffffffffffffffff1673ffffffffffffffffffffffffffffffffffffffff1681526020019081526020015f205f8473ffffffffffffffffffffffffffffffffffffffff1673ffffffffffffffffffffffffffffffffffffffff1681526020019081526020015f205f6101000a81548160ff0219169083151502179055508173ffffffffffffffffffffffffffffffffffffffff168373ffffffffffffffffffffffffffffffffffffffff167f17307eab39ab6107e8899845ad3d59bd9653f200f220920489ca2b5937696c31836040516113f99190611ce3565b60405180910390a3505050565b5f6114125f835f610e55565b90505f73ffffffffffffffffffffffffffffffffffffffff168173ffffffffffffffffffffffffffffffffffffffff160361148457816040517f7e27328900000000000000000000000000000000000000000000000000000000815260040161147b91906121a3565b60405180910390fd5b5050565b5f8373ffffffffffffffffffffffffffffffffffffffff163b111561162d578273ffffffffffffffffffffffffffffffffffffffff1663150b7a02868685856040518563ffffffff1660e01b81526004016114e694939291906127cf565b6020604051808303815f875af192505050801561152157506040513d601f19601f8201168201806040525081019061151e919061282d565b60015b6115a2573d805f811461154f576040519150601f19603f3d011682016040523d82523d5f602084013e611554565b606091505b505f81510361159a57836040517f64a0ae920000000000000000000000000000000000000000000000000000000081526004016115919190611e29565b60405180910390fd5b805181602001fd5b63150b7a0260e01b7bffffffffffffffffffffffffffffffffffffffffffffffffffffffff1916817bffffffffffffffffffffffffffffffffffffffffffffffffffffffff19161461162b57836040517f64a0ae920000000000000000000000000000000000000000000000000000000081526004016116229190611e29565b60405180910390fd5b505b5050505050565b606060405180602001604052805f815250905090565b60605f6001611658846119cf565b0190505f8167ffffffffffffffff81111561167657611675611fda565b5b6040519080825280601f01601f1916602001820160405280156116a85781602001600182028036833780820191505090505b5090505f82602001820190505b600115611709578080600190039150507f3031323334353637383961626364656600000000000000000000000000000000600a86061a8153600a85816116fe576116fd612858565b5b0494505f85036116b5575b819350505050919050565b5f60025f8381526020019081526020015f205f9054906101000a900473ffffffffffffffffffffffffffffffffffffffff169050919050565b808061178557505f73ffffffffffffffffffffffffffffffffffffffff168273ffffffffffffffffffffffffffffffffffffffff1614155b156118b7575f61179484610d7d565b90505f73ffffffffffffffffffffffffffffffffffffffff168373ffffffffffffffffffffffffffffffffffffffff16141580156117fe57508273ffffffffffffffffffffffffffffffffffffffff168173ffffffffffffffffffffffffffffffffffffffff1614155b8015611811575061180f8184610c02565b155b1561185357826040517fa9fbf51f00000000000000000000000000000000000000000000000000000000815260040161184a9190611e29565b60405180910390fd5b81156118b557838573ffffffffffffffffffffffffffffffffffffffff168273ffffffffffffffffffffffffffffffffffffffff167f8c5be1e5ebec7d5bd14f71427d1e84f3dd0314c0f7b2291e5b200ac8c7c3b92560405160405180910390a45b505b8360045f8581526020019081526020015f205f6101000a81548173ffffffffffffffffffffffffffffffffffffffff021916908373ffffffffffffffffffffffffffffffffffffffff16021790555050505050565b611917838383611b20565b6119ca575f73ffffffffffffffffffffffffffffffffffffffff168373ffffffffffffffffffffffffffffffffffffffff160361198b57806040517f7e27328900000000000000000000000000000000000000000000000000000000815260040161198291906121a3565b60405180910390fd5b81816040517f177e802f0000000000000000000000000000000000000000000000000000000081526004016119c1929190612885565b60405180910390fd5b505050565b5f5f5f90507a184f03e93ff9f4daa797ed6e38ed64bf6a1f0100000000000000008310611a2b577a184f03e93ff9f4daa797ed6e38ed64bf6a1f0100000000000000008381611a2157611a20612858565b5b0492506040810190505b6d04ee2d6d415b85acef81000000008310611a68576d04ee2d6d415b85acef81000000008381611a5e57611a5d612858565b5b0492506020810190505b662386f26fc100008310611a9757662386f26fc100008381611a8d57611a8c612858565b5b0492506010810190505b6305f5e1008310611ac0576305f5e1008381611ab657611ab5612858565b5b0492506008810190505b6127108310611ae5576127108381611adb57611ada612858565b5b0492506004810190505b60648310611b085760648381611afe57611afd612858565b5b0492506002810190505b600a8310611b17576001810190505b80915050919050565b5f5f73ffffffffffffffffffffffffffffffffffffffff168373ffffffffffffffffffffffffffffffffffffffff1614158015611bd757508273ffffffffffffffffffffffffffffffffffffffff168473ffffffffffffffffffffffffffffffffffffffff161480611b985750611b978484610c02565b5b80611bd657508273ffffffffffffffffffffffffffffffffffffffff16611bbe83610e03565b73ffffffffffffffffffffffffffffffffffffffff16145b5b90509392505050565b508054611bec906123d8565b5f825580601f10611bfd5750611c1a565b601f0160209004905f5260205f2090810190611c199190611c1d565b5b50565b5b80821115611c34575f815f905550600101611c1e565b5090565b5f604051905090565b5f5ffd5b5f5ffd5b5f7fffffffff0000000000000000000000000000000000000000000000000000000082169050919050565b611c7d81611c49565b8114611c87575f5ffd5b50565b5f81359050611c9881611c74565b92915050565b5f60208284031215611cb357611cb2611c41565b5b5f611cc084828501611c8a565b91505092915050565b5f8115159050919050565b611cdd81611cc9565b82525050565b5f602082019050611cf65f830184611cd4565b92915050565b5f81519050919050565b5f82825260208201905092915050565b8281835e5f83830152505050565b5f601f19601f8301169050919050565b5f611d3e82611cfc565b611d488185611d06565b9350611d58818560208601611d16565b611d6181611d24565b840191505092915050565b5f6020820190508181035f830152611d848184611d34565b905092915050565b5f819050919050565b611d9e81611d8c565b8114611da8575f5ffd5b50565b5f81359050611db981611d95565b92915050565b5f60208284031215611dd457611dd3611c41565b5b5f611de184828501611dab565b91505092915050565b5f73ffffffffffffffffffffffffffffffffffffffff82169050919050565b5f611e1382611dea565b9050919050565b611e2381611e09565b82525050565b5f602082019050611e3c5f830184611e1a565b92915050565b611e4b81611e09565b8114611e55575f5ffd5b50565b5f81359050611e6681611e42565b92915050565b5f5f60408385031215611e8257611e81611c41565b5b5f611e8f85828601611e58565b9250506020611ea085828601611dab565b9150509250929050565b611eb381611d8c565b82525050565b5f61ffff82169050919050565b611ecf81611eb9565b82525050565b5f61010082019050611ee95f83018b611eaa565b611ef6602083018a611e1a565b611f036040830189611eaa565b611f106060830188611ec6565b8181036080830152611f228187611d34565b9050611f3160a0830186611ec6565b611f3e60c0830185611eaa565b611f4b60e0830184611cd4565b9998505050505050505050565b5f5f5f60608486031215611f6f57611f6e611c41565b5b5f611f7c86828701611e58565b9350506020611f8d86828701611e58565b9250506040611f9e86828701611dab565b9150509250925092565b611fb181611eb9565b8114611fbb575f5ffd5b50565b5f81359050611fcc81611fa8565b92915050565b5f5ffd5b5f5ffd5b7f4e487b71000000000000000000000000000000000000000000000000000000005f52604160045260245ffd5b61201082611d24565b810181811067ffffffffffffffff8211171561202f5761202e611fda565b5b80604052505050565b5f612041611c38565b905061204d8282612007565b919050565b5f67ffffffffffffffff82111561206c5761206b611fda565b5b61207582611d24565b9050602081019050919050565b828183375f83830152505050565b5f6120a261209d84612052565b612038565b9050828152602081018484840111156120be576120bd611fd6565b5b6120c9848285612082565b509392505050565b5f82601f8301126120e5576120e4611fd2565b5b81356120f5848260208601612090565b91505092915050565b5f5f5f5f5f5f60c0878903121561211857612117611c41565b5b5f61212589828a01611e58565b965050602061213689828a01611dab565b955050604061214789828a01611fbe565b945050606087013567ffffffffffffffff81111561216857612167611c45565b5b61217489828a016120d1565b935050608061218589828a01611fbe565b92505060a061219689828a01611dab565b9150509295509295509295565b5f6020820190506121b65f830184611eaa565b92915050565b5f602082840312156121d1576121d0611c41565b5b5f6121de84828501611e58565b91505092915050565b6121f081611cc9565b81146121fa575f5ffd5b50565b5f8135905061220b816121e7565b92915050565b5f5f6040838503121561222757612226611c41565b5b5f61223485828601611e58565b9250506020612245858286016121fd565b9150509250929050565b5f67ffffffffffffffff82111561226957612268611fda565b5b61227282611d24565b9050602081019050919050565b5f61229161228c8461224f565b612038565b9050828152602081018484840111156122ad576122ac611fd6565b5b6122b8848285612082565b509392505050565b5f82601f8301126122d4576122d3611fd2565b5b81356122e484826020860161227f565b91505092915050565b5f5f5f5f6080858703121561230557612304611c41565b5b5f61231287828801611e58565b945050602061232387828801611e58565b935050604061233487828801611dab565b925050606085013567ffffffffffffffff81111561235557612354611c45565b5b612361878288016122c0565b91505092959194509250565b5f5f6040838503121561238357612382611c41565b5b5f61239085828601611e58565b92505060206123a185828601611e58565b9150509250929050565b7f4e487b71000000000000000000000000000000000000000000000000000000005f52602260045260245ffd5b5f60028204905060018216806123ef57607f821691505b602082108103612402576124016123ab565b5b50919050565b5f60608201905061241b5f830186611e1a565b6124286020830185611eaa565b6124356040830184611e1a565b949350505050565b7f4e487b71000000000000000000000000000000000000000000000000000000005f52601160045260245ffd5b5f61247482611d8c565b91507fffffffffffffffffffffffffffffffffffffffffffffffffffffffffffffffff82036124a6576124a561243d565b5b600182019050919050565b5f819050815f5260205f209050919050565b5f6020601f8301049050919050565b5f82821b905092915050565b5f6008830261250d7fffffffffffffffffffffffffffffffffffffffffffffffffffffffffffffffff826124d2565b61251786836124d2565b95508019841693508086168417925050509392505050565b5f819050919050565b5f61255261254d61254884611d8c565b61252f565b611d8c565b9050919050565b5f819050919050565b61256b83612538565b61257f61257782612559565b8484546124de565b825550505050565b5f5f905090565b612596612587565b6125a1818484612562565b505050565b5b818110156125c4576125b95f8261258e565b6001810190506125a7565b5050565b601f821115612609576125da816124b1565b6125e3846124c3565b810160208510156125f2578190505b6126066125fe856124c3565b8301826125a6565b50505b505050565b5f82821c905092915050565b5f6126295f198460080261260e565b1980831691505092915050565b5f612641838361261a565b9150826002028217905092915050565b61265a82611cfc565b67ffffffffffffffff81111561267357612672611fda565b5b61267d82546123d8565b6126888282856125c8565b5f60209050601f8311600181146126b9575f84156126a7578287015190505b6126b18582612636565b865550612718565b601f1984166126c7866124b1565b5f5b828110156126ee578489015182556001820191506020850194506020810190506126c9565b8683101561270b5784890151612707601f89168261261a565b8355505b6001600288020188555050505b505050505050565b5f81905092915050565b5f61273482611cfc565b61273e8185612720565b935061274e818560208601611d16565b80840191505092915050565b5f612765828561272a565b9150612771828461272a565b91508190509392505050565b5f81519050919050565b5f82825260208201905092915050565b5f6127a18261277d565b6127ab8185612787565b93506127bb818560208601611d16565b6127c481611d24565b840191505092915050565b5f6080820190506127e25f830187611e1a565b6127ef6020830186611e1a565b6127fc6040830185611eaa565b818103606083015261280e8184612797565b905095945050505050565b5f8151905061282781611c74565b92915050565b5f6020828403121561284257612841611c41565b5b5f61284f84828501612819565b91505092915050565b7f4e487b71000000000000000000000000000000000000000000000000000000005f52601260045260245ffd5b5f6040820190506128985f830185611e1a565b6128a56020830184611eaa565b939250505056fea264697066735822122019b586f911d5579986148c3ee1784b9ac2b6f624e803ec561dc4ce2d328bde4564736f6c634300081c0033",
  "immutableReferences": {},
  "source": "pragma solidity ^0.8.0;\n\nimport \"@openzeppelin/contracts/token/ERC721/ERC721.sol\";\nimport \"@openzeppelin/contracts/access/Ownable.sol\";\n\ncontract WineNFT is ERC721, Ownable {\n    struct Wine {\n        uint256 tokenId;\n        address producer;\n        uint256 price;\n        uint16 vintage;\n        string grapeVariety;\n        uint16 numberOfBottles;\n        uint256 maturityDate;\n        bool redeemed;\n    }\n\n    uint256 private currentTokenId;\n    mapping(uint256 => Wine) public wines;\n\n    constructor(address initialOwner) ERC721(\"Wine NFT\", \"WINE\") Ownable(initialOwner) {}\n\n    function mintWine(\n        address producer,\n        uint256 price,\n        uint16 vintage,\n        string memory grapeVariety,\n        uint16 numberOfBottles,\n        uint256 maturityDate\n    ) public onlyOwner returns (uint256) {\n        uint256 newTokenId = currentTokenId++;\n        _mint(producer, newTokenId);\n\n        wines[newTokenId] = Wine({\n            tokenId: newTokenId,\n            producer: producer,\n            price: price,\n            vintage: vintage,\n            grapeVariety: grapeVariety,\n            numberOfBottles: numberOfBottles,\n            maturityDate: maturityDate,\n            redeemed: false\n        });\n\n        return newTokenId;\n    }\n\n    function burnWine(uint256 tokenId) public onlyOwner {\n        _burn(tokenId);\n        delete wines[tokenId];\n    }\n\n}\n",
  "sourcePath": "/Users/brennanlee/Desktop/vin-futures-solidity/contracts/WineNFT.sol",
  "compiler": {
    "name": "solc",
    "version": "0.8.28+commit.7893614a.Emscripten.clang"
  },
  "schemaVersion": "3.4.16",
  "updatedAt": "2024-10-22T12:59:11.410Z",
  "devdoc": {
    "errors": {
      "ERC721IncorrectOwner(address,uint256,address)": [
        {
          "details": "Indicates an error related to the ownership over a particular token. Used in transfers.",
          "params": {
            "owner": "Address of the current owner of a token.",
            "sender": "Address whose tokens are being transferred.",
            "tokenId": "Identifier number of a token."
          }
        }
      ],
      "ERC721InsufficientApproval(address,uint256)": [
        {
          "details": "Indicates a failure with the `operator`s approval. Used in transfers.",
          "params": {
            "operator": "Address that may be allowed to operate on tokens without being their owner.",
            "tokenId": "Identifier number of a token."
          }
        }
      ],
      "ERC721InvalidApprover(address)": [
        {
          "details": "Indicates a failure with the `approver` of a token to be approved. Used in approvals.",
          "params": {
            "approver": "Address initiating an approval operation."
          }
        }
      ],
      "ERC721InvalidOperator(address)": [
        {
          "details": "Indicates a failure with the `operator` to be approved. Used in approvals.",
          "params": {
            "operator": "Address that may be allowed to operate on tokens without being their owner."
          }
        }
      ],
      "ERC721InvalidOwner(address)": [
        {
          "details": "Indicates that an address can't be an owner. For example, `address(0)` is a forbidden owner in ERC-20. Used in balance queries.",
          "params": {
            "owner": "Address of the current owner of a token."
          }
        }
      ],
      "ERC721InvalidReceiver(address)": [
        {
          "details": "Indicates a failure with the token `receiver`. Used in transfers.",
          "params": {
            "receiver": "Address to which tokens are being transferred."
          }
        }
      ],
      "ERC721InvalidSender(address)": [
        {
          "details": "Indicates a failure with the token `sender`. Used in transfers.",
          "params": {
            "sender": "Address whose tokens are being transferred."
          }
        }
      ],
      "ERC721NonexistentToken(uint256)": [
        {
          "details": "Indicates a `tokenId` whose `owner` is the zero address.",
          "params": {
            "tokenId": "Identifier number of a token."
          }
        }
      ],
      "OwnableInvalidOwner(address)": [
        {
          "details": "The owner is not a valid owner account. (eg. `address(0)`)"
        }
      ],
      "OwnableUnauthorizedAccount(address)": [
        {
          "details": "The caller account is not authorized to perform an operation."
        }
      ]
    },
    "events": {
      "Approval(address,address,uint256)": {
        "details": "Emitted when `owner` enables `approved` to manage the `tokenId` token."
      },
      "ApprovalForAll(address,address,bool)": {
        "details": "Emitted when `owner` enables or disables (`approved`) `operator` to manage all of its assets."
      },
      "Transfer(address,address,uint256)": {
        "details": "Emitted when `tokenId` token is transferred from `from` to `to`."
      }
    },
    "kind": "dev",
    "methods": {
      "approve(address,uint256)": {
        "details": "See {IERC721-approve}."
      },
      "balanceOf(address)": {
        "details": "See {IERC721-balanceOf}."
      },
      "getApproved(uint256)": {
        "details": "See {IERC721-getApproved}."
      },
      "isApprovedForAll(address,address)": {
        "details": "See {IERC721-isApprovedForAll}."
      },
      "name()": {
        "details": "See {IERC721Metadata-name}."
      },
      "owner()": {
        "details": "Returns the address of the current owner."
      },
      "ownerOf(uint256)": {
        "details": "See {IERC721-ownerOf}."
      },
      "renounceOwnership()": {
        "details": "Leaves the contract without owner. It will not be possible to call `onlyOwner` functions. Can only be called by the current owner. NOTE: Renouncing ownership will leave the contract without an owner, thereby disabling any functionality that is only available to the owner."
      },
      "safeTransferFrom(address,address,uint256)": {
        "details": "See {IERC721-safeTransferFrom}."
      },
      "safeTransferFrom(address,address,uint256,bytes)": {
        "details": "See {IERC721-safeTransferFrom}."
      },
      "setApprovalForAll(address,bool)": {
        "details": "See {IERC721-setApprovalForAll}."
      },
      "supportsInterface(bytes4)": {
        "details": "See {IERC165-supportsInterface}."
      },
      "symbol()": {
        "details": "See {IERC721Metadata-symbol}."
      },
      "tokenURI(uint256)": {
        "details": "See {IERC721Metadata-tokenURI}."
      },
      "transferFrom(address,address,uint256)": {
        "details": "See {IERC721-transferFrom}."
      },
      "transferOwnership(address)": {
        "details": "Transfers ownership of the contract to a new account (`newOwner`). Can only be called by the current owner."
      }
    },
    "version": 1
  },
  "userdoc": {
    "kind": "user",
    "methods": {},
    "version": 1
  }
}