{
  "contractName": "WineNFT",
  "abi": [
    {
      "inputs": [
        {
          "internalType": "address",
          "name": "initialOwner",
          "type": "address"
        }
      ],
      "stateMutability": "nonpayable",
      "type": "constructor"
    },
    {
      "inputs": [
        {
          "internalType": "address",
          "name": "sender",
          "type": "address"
        },
        {
          "internalType": "uint256",
          "name": "tokenId",
          "type": "uint256"
        },
        {
          "internalType": "address",
          "name": "owner",
          "type": "address"
        }
      ],
      "name": "ERC721IncorrectOwner",
      "type": "error"
    },
    {
      "inputs": [
        {
          "internalType": "address",
          "name": "operator",
          "type": "address"
        },
        {
          "internalType": "uint256",
          "name": "tokenId",
          "type": "uint256"
        }
      ],
      "name": "ERC721InsufficientApproval",
      "type": "error"
    },
    {
      "inputs": [
        {
          "internalType": "address",
          "name": "approver",
          "type": "address"
        }
      ],
      "name": "ERC721InvalidApprover",
      "type": "error"
    },
    {
      "inputs": [
        {
          "internalType": "address",
          "name": "operator",
          "type": "address"
        }
      ],
      "name": "ERC721InvalidOperator",
      "type": "error"
    },
    {
      "inputs": [
        {
          "internalType": "address",
          "name": "owner",
          "type": "address"
        }
      ],
      "name": "ERC721InvalidOwner",
      "type": "error"
    },
    {
      "inputs": [
        {
          "internalType": "address",
          "name": "receiver",
          "type": "address"
        }
      ],
      "name": "ERC721InvalidReceiver",
      "type": "error"
    },
    {
      "inputs": [
        {
          "internalType": "address",
          "name": "sender",
          "type": "address"
        }
      ],
      "name": "ERC721InvalidSender",
      "type": "error"
    },
    {
      "inputs": [
        {
          "internalType": "uint256",
          "name": "tokenId",
          "type": "uint256"
        }
      ],
      "name": "ERC721NonexistentToken",
      "type": "error"
    },
    {
      "inputs": [
        {
          "internalType": "address",
          "name": "owner",
          "type": "address"
        }
      ],
      "name": "OwnableInvalidOwner",
      "type": "error"
    },
    {
      "inputs": [
        {
          "internalType": "address",
          "name": "account",
          "type": "address"
        }
      ],
      "name": "OwnableUnauthorizedAccount",
      "type": "error"
    },
    {
      "anonymous": false,
      "inputs": [
        {
          "indexed": true,
          "internalType": "address",
          "name": "owner",
          "type": "address"
        },
        {
          "indexed": true,
          "internalType": "address",
          "name": "approved",
          "type": "address"
        },
        {
          "indexed": true,
          "internalType": "uint256",
          "name": "tokenId",
          "type": "uint256"
        }
      ],
      "name": "Approval",
      "type": "event"
    },
    {
      "anonymous": false,
      "inputs": [
        {
          "indexed": true,
          "internalType": "address",
          "name": "owner",
          "type": "address"
        },
        {
          "indexed": true,
          "internalType": "address",
          "name": "operator",
          "type": "address"
        },
        {
          "indexed": false,
          "internalType": "bool",
          "name": "approved",
          "type": "bool"
        }
      ],
      "name": "ApprovalForAll",
      "type": "event"
    },
    {
      "anonymous": false,
      "inputs": [
        {
          "indexed": true,
          "internalType": "address",
          "name": "previousOwner",
          "type": "address"
        },
        {
          "indexed": true,
          "internalType": "address",
          "name": "newOwner",
          "type": "address"
        }
      ],
      "name": "OwnershipTransferred",
      "type": "event"
    },
    {
      "anonymous": false,
      "inputs": [
        {
          "indexed": true,
          "internalType": "address",
          "name": "from",
          "type": "address"
        },
        {
          "indexed": true,
          "internalType": "address",
          "name": "to",
          "type": "address"
        },
        {
          "indexed": true,
          "internalType": "uint256",
          "name": "tokenId",
          "type": "uint256"
        }
      ],
      "name": "Transfer",
      "type": "event"
    },
    {
      "inputs": [
        {
          "internalType": "address",
          "name": "to",
          "type": "address"
        },
        {
          "internalType": "uint256",
          "name": "tokenId",
          "type": "uint256"
        }
      ],
      "name": "approve",
      "outputs": [],
      "stateMutability": "nonpayable",
      "type": "function"
    },
    {
      "inputs": [
        {
          "internalType": "address",
          "name": "owner",
          "type": "address"
        }
      ],
      "name": "balanceOf",
      "outputs": [
        {
          "internalType": "uint256",
          "name": "",
          "type": "uint256"
        }
      ],
      "stateMutability": "view",
      "type": "function",
      "constant": true
    },
    {
      "inputs": [
        {
          "internalType": "uint256",
          "name": "tokenId",
          "type": "uint256"
        }
      ],
      "name": "getApproved",
      "outputs": [
        {
          "internalType": "address",
          "name": "",
          "type": "address"
        }
      ],
      "stateMutability": "view",
      "type": "function",
      "constant": true
    },
    {
      "inputs": [
        {
          "internalType": "address",
          "name": "owner",
          "type": "address"
        },
        {
          "internalType": "address",
          "name": "operator",
          "type": "address"
        }
      ],
      "name": "isApprovedForAll",
      "outputs": [
        {
          "internalType": "bool",
          "name": "",
          "type": "bool"
        }
      ],
      "stateMutability": "view",
      "type": "function",
      "constant": true
    },
    {
      "inputs": [],
      "name": "name",
      "outputs": [
        {
          "internalType": "string",
          "name": "",
          "type": "string"
        }
      ],
      "stateMutability": "view",
      "type": "function",
      "constant": true
    },
    {
      "inputs": [],
      "name": "numWineNFTs",
      "outputs": [
        {
          "internalType": "uint256",
          "name": "",
          "type": "uint256"
        }
      ],
      "stateMutability": "view",
      "type": "function",
      "constant": true
    },
    {
      "inputs": [],
      "name": "owner",
      "outputs": [
        {
          "internalType": "address",
          "name": "",
          "type": "address"
        }
      ],
      "stateMutability": "view",
      "type": "function",
      "constant": true
    },
    {
      "inputs": [
        {
          "internalType": "uint256",
          "name": "tokenId",
          "type": "uint256"
        }
      ],
      "name": "ownerOf",
      "outputs": [
        {
          "internalType": "address",
          "name": "",
          "type": "address"
        }
      ],
      "stateMutability": "view",
      "type": "function",
      "constant": true
    },
    {
      "inputs": [],
      "name": "renounceOwnership",
      "outputs": [],
      "stateMutability": "nonpayable",
      "type": "function"
    },
    {
      "inputs": [
        {
          "internalType": "address",
          "name": "from",
          "type": "address"
        },
        {
          "internalType": "address",
          "name": "to",
          "type": "address"
        },
        {
          "internalType": "uint256",
          "name": "tokenId",
          "type": "uint256"
        }
      ],
      "name": "safeTransferFrom",
      "outputs": [],
      "stateMutability": "nonpayable",
      "type": "function"
    },
    {
      "inputs": [
        {
          "internalType": "address",
          "name": "from",
          "type": "address"
        },
        {
          "internalType": "address",
          "name": "to",
          "type": "address"
        },
        {
          "internalType": "uint256",
          "name": "tokenId",
          "type": "uint256"
        },
        {
          "internalType": "bytes",
          "name": "data",
          "type": "bytes"
        }
      ],
      "name": "safeTransferFrom",
      "outputs": [],
      "stateMutability": "nonpayable",
      "type": "function"
    },
    {
      "inputs": [
        {
          "internalType": "address",
          "name": "operator",
          "type": "address"
        },
        {
          "internalType": "bool",
          "name": "approved",
          "type": "bool"
        }
      ],
      "name": "setApprovalForAll",
      "outputs": [],
      "stateMutability": "nonpayable",
      "type": "function"
    },
    {
      "inputs": [
        {
          "internalType": "bytes4",
          "name": "interfaceId",
          "type": "bytes4"
        }
      ],
      "name": "supportsInterface",
      "outputs": [
        {
          "internalType": "bool",
          "name": "",
          "type": "bool"
        }
      ],
      "stateMutability": "view",
      "type": "function",
      "constant": true
    },
    {
      "inputs": [],
      "name": "symbol",
      "outputs": [
        {
          "internalType": "string",
          "name": "",
          "type": "string"
        }
      ],
      "stateMutability": "view",
      "type": "function",
      "constant": true
    },
    {
      "inputs": [
        {
          "internalType": "uint256",
          "name": "tokenId",
          "type": "uint256"
        }
      ],
      "name": "tokenURI",
      "outputs": [
        {
          "internalType": "string",
          "name": "",
          "type": "string"
        }
      ],
      "stateMutability": "view",
      "type": "function",
      "constant": true
    },
    {
      "inputs": [
        {
          "internalType": "address",
          "name": "from",
          "type": "address"
        },
        {
          "internalType": "address",
          "name": "to",
          "type": "address"
        },
        {
          "internalType": "uint256",
          "name": "tokenId",
          "type": "uint256"
        }
      ],
      "name": "transferFrom",
      "outputs": [],
      "stateMutability": "nonpayable",
      "type": "function"
    },
    {
      "inputs": [
        {
          "internalType": "address",
          "name": "newOwner",
          "type": "address"
        }
      ],
      "name": "transferOwnership",
      "outputs": [],
      "stateMutability": "nonpayable",
      "type": "function"
    },
    {
      "inputs": [
        {
          "internalType": "uint256",
          "name": "",
          "type": "uint256"
        }
      ],
      "name": "wines",
      "outputs": [
        {
          "internalType": "uint256",
          "name": "wineId",
          "type": "uint256"
        },
        {
          "internalType": "address",
          "name": "producer",
          "type": "address"
        },
        {
          "internalType": "uint256",
          "name": "price",
          "type": "uint256"
        },
        {
          "internalType": "uint16",
          "name": "vintage",
          "type": "uint16"
        },
        {
          "internalType": "string",
          "name": "grapeVariety",
          "type": "string"
        },
        {
          "internalType": "uint16",
          "name": "numberOfBottles",
          "type": "uint16"
        },
        {
          "internalType": "uint256",
          "name": "maturityDate",
          "type": "uint256"
        },
        {
          "internalType": "bool",
          "name": "redeemed",
          "type": "bool"
        },
        {
          "internalType": "address",
          "name": "owner",
          "type": "address"
        }
      ],
      "stateMutability": "view",
      "type": "function",
      "constant": true
    },
    {
      "inputs": [
        {
          "internalType": "address",
          "name": "producer",
          "type": "address"
        },
        {
          "internalType": "uint256",
          "name": "price",
          "type": "uint256"
        },
        {
          "internalType": "uint16",
          "name": "vintage",
          "type": "uint16"
        },
        {
          "internalType": "string",
          "name": "grapeVariety",
          "type": "string"
        },
        {
          "internalType": "uint16",
          "name": "numberOfBottles",
          "type": "uint16"
        },
        {
          "internalType": "uint256",
          "name": "maturityDate",
          "type": "uint256"
        }
      ],
      "name": "mintWine",
      "outputs": [
        {
          "internalType": "uint256",
          "name": "",
          "type": "uint256"
        }
      ],
      "stateMutability": "payable",
      "type": "function",
      "payable": true
    },
    {
      "inputs": [
        {
          "internalType": "uint256",
          "name": "wineId",
          "type": "uint256"
        }
      ],
      "name": "burnWine",
      "outputs": [],
      "stateMutability": "nonpayable",
      "type": "function"
    },
    {
      "inputs": [
        {
          "internalType": "uint256",
          "name": "wineId",
          "type": "uint256"
        },
        {
          "internalType": "address",
          "name": "newOwner",
          "type": "address"
        }
      ],
      "name": "transfer",
      "outputs": [],
      "stateMutability": "nonpayable",
      "type": "function"
    },
    {
      "inputs": [
        {
          "internalType": "uint256",
          "name": "wineId",
          "type": "uint256"
        }
      ],
      "name": "getOwner",
      "outputs": [
        {
          "internalType": "address",
          "name": "",
          "type": "address"
        }
      ],
      "stateMutability": "view",
      "type": "function",
      "constant": true
    }
  ],
  "bytecode": "0x60806040523480156200001157600080fd5b5060405162003b7f38038062003b7f833981810160405281019062000037919062000288565b806040518060400160405280600881526020017f57696e65204e46540000000000000000000000000000000000000000000000008152506040518060400160405280600481526020017f57494e45000000000000000000000000000000000000000000000000000000008152508160009081620000b5919062000534565b508060019081620000c7919062000534565b505050600073ffffffffffffffffffffffffffffffffffffffff168173ffffffffffffffffffffffffffffffffffffffff16036200013f5760006040517f1e4fbdf70000000000000000000000000000000000000000000000000000000081526004016200013691906200062c565b60405180910390fd5b62000150816200015860201b60201c565b505062000649565b6000600660009054906101000a900473ffffffffffffffffffffffffffffffffffffffff16905081600660006101000a81548173ffffffffffffffffffffffffffffffffffffffff021916908373ffffffffffffffffffffffffffffffffffffffff1602179055508173ffffffffffffffffffffffffffffffffffffffff168173ffffffffffffffffffffffffffffffffffffffff167f8be0079c531659141344cd1fd0a4f28419497f9722a3daafe3b4186f6b6457e060405160405180910390a35050565b600080fd5b600073ffffffffffffffffffffffffffffffffffffffff82169050919050565b6000620002508262000223565b9050919050565b620002628162000243565b81146200026e57600080fd5b50565b600081519050620002828162000257565b92915050565b600060208284031215620002a157620002a06200021e565b5b6000620002b18482850162000271565b91505092915050565b600081519050919050565b7f4e487b7100000000000000000000000000000000000000000000000000000000600052604160045260246000fd5b7f4e487b7100000000000000000000000000000000000000000000000000000000600052602260045260246000fd5b600060028204905060018216806200033c57607f821691505b602082108103620003525762000351620002f4565b5b50919050565b60008190508160005260206000209050919050565b60006020601f8301049050919050565b600082821b905092915050565b600060088302620003bc7fffffffffffffffffffffffffffffffffffffffffffffffffffffffffffffffff826200037d565b620003c886836200037d565b95508019841693508086168417925050509392505050565b6000819050919050565b6000819050919050565b6000620004156200040f6200040984620003e0565b620003ea565b620003e0565b9050919050565b6000819050919050565b6200043183620003f4565b6200044962000440826200041c565b8484546200038a565b825550505050565b600090565b6200046062000451565b6200046d81848462000426565b505050565b5b8181101562000495576200048960008262000456565b60018101905062000473565b5050565b601f821115620004e457620004ae8162000358565b620004b9846200036d565b81016020851015620004c9578190505b620004e1620004d8856200036d565b83018262000472565b50505b505050565b600082821c905092915050565b60006200050960001984600802620004e9565b1980831691505092915050565b6000620005248383620004f6565b9150826002028217905092915050565b6200053f82620002ba565b67ffffffffffffffff8111156200055b576200055a620002c5565b5b62000567825462000323565b6200057482828562000499565b600060209050601f831160018114620005ac576000841562000597578287015190505b620005a3858262000516565b86555062000613565b601f198416620005bc8662000358565b60005b82811015620005e657848901518255600182019150602085019450602081019050620005bf565b8683101562000606578489015162000602601f891682620004f6565b8355505b6001600288020188555050505b505050505050565b620006268162000243565b82525050565b60006020820190506200064360008301846200061b565b92915050565b61352680620006596000396000f3fe6080604052600436106101355760003560e01c8063715018a6116100ab578063b7760c8f1161006f578063b7760c8f14610433578063b88d4fde1461045c578063c41a360a14610485578063c87b56dd146104c2578063e985e9c5146104ff578063f2fde38b1461053c57610135565b8063715018a6146103745780638da5cb5b1461038b57806395d89b41146103b6578063a22cb465146103e1578063a45aac711461040a57610135565b806323b872dd116100fd57806323b872dd1461024d57806336cdf0971461027657806342842e0e146102a157806361558c54146102ca5780636352211e146102fa57806370a082311461033757610135565b806301ffc9a71461013a57806306fdde0314610177578063081812fc146101a2578063095ea7b3146101df57806313351db314610208575b600080fd5b34801561014657600080fd5b50610161600480360381019061015c9190612544565b610565565b60405161016e919061258c565b60405180910390f35b34801561018357600080fd5b5061018c610647565b6040516101999190612637565b60405180910390f35b3480156101ae57600080fd5b506101c960048036038101906101c4919061268f565b6106d9565b6040516101d691906126fd565b60405180910390f35b3480156101eb57600080fd5b5061020660048036038101906102019190612744565b6106f5565b005b34801561021457600080fd5b5061022f600480360381019061022a919061268f565b61070b565b604051610244999897969594939291906127b0565b60405180910390f35b34801561025957600080fd5b50610274600480360381019061026f9190612844565b61084a565b005b34801561028257600080fd5b5061028b61094c565b6040516102989190612897565b60405180910390f35b3480156102ad57600080fd5b506102c860048036038101906102c39190612844565b610952565b005b6102e460048036038101906102df9190612a13565b610972565b6040516102f19190612897565b60405180910390f35b34801561030657600080fd5b50610321600480360381019061031c919061268f565b610ba7565b60405161032e91906126fd565b60405180910390f35b34801561034357600080fd5b5061035e60048036038101906103599190612abc565b610bb9565b60405161036b9190612897565b60405180910390f35b34801561038057600080fd5b50610389610c73565b005b34801561039757600080fd5b506103a0610c87565b6040516103ad91906126fd565b60405180910390f35b3480156103c257600080fd5b506103cb610cb1565b6040516103d89190612637565b60405180910390f35b3480156103ed57600080fd5b5061040860048036038101906104039190612b15565b610d43565b005b34801561041657600080fd5b50610431600480360381019061042c919061268f565b610d59565b005b34801561043f57600080fd5b5061045a60048036038101906104559190612b55565b61101b565b005b34801561046857600080fd5b50610483600480360381019061047e9190612c36565b611246565b005b34801561049157600080fd5b506104ac60048036038101906104a7919061268f565b61126b565b6040516104b991906126fd565b60405180910390f35b3480156104ce57600080fd5b506104e960048036038101906104e4919061268f565b61127d565b6040516104f69190612637565b60405180910390f35b34801561050b57600080fd5b5061052660048036038101906105219190612cb9565b6112e6565b604051610533919061258c565b60405180910390f35b34801561054857600080fd5b50610563600480360381019061055e9190612abc565b61137a565b005b60007f80ac58cd000000000000000000000000000000000000000000000000000000007bffffffffffffffffffffffffffffffffffffffffffffffffffffffff1916827bffffffffffffffffffffffffffffffffffffffffffffffffffffffff1916148061063057507f5b5e139f000000000000000000000000000000000000000000000000000000007bffffffffffffffffffffffffffffffffffffffffffffffffffffffff1916827bffffffffffffffffffffffffffffffffffffffffffffffffffffffff1916145b80610640575061063f82611400565b5b9050919050565b60606000805461065690612d28565b80601f016020809104026020016040519081016040528092919081815260200182805461068290612d28565b80156106cf5780601f106106a4576101008083540402835291602001916106cf565b820191906000526020600020905b8154815290600101906020018083116106b257829003601f168201915b5050505050905090565b60006106e48261146a565b506106ee826114f2565b9050919050565b610707828261070261152f565b611537565b5050565b60086020528060005260406000206000915090508060000154908060010160009054906101000a900473ffffffffffffffffffffffffffffffffffffffff16908060020154908060030160009054906101000a900461ffff169080600401805461077490612d28565b80601f01602080910402602001604051908101604052809291908181526020018280546107a090612d28565b80156107ed5780601f106107c2576101008083540402835291602001916107ed565b820191906000526020600020905b8154815290600101906020018083116107d057829003601f168201915b5050505050908060050160009054906101000a900461ffff16908060060154908060070160009054906101000a900460ff16908060070160019054906101000a900473ffffffffffffffffffffffffffffffffffffffff16905089565b600073ffffffffffffffffffffffffffffffffffffffff168273ffffffffffffffffffffffffffffffffffffffff16036108bc5760006040517f64a0ae920000000000000000000000000000000000000000000000000000000081526004016108b391906126fd565b60405180910390fd5b60006108d083836108cb61152f565b611549565b90508373ffffffffffffffffffffffffffffffffffffffff168173ffffffffffffffffffffffffffffffffffffffff1614610946578382826040517f64283d7b00000000000000000000000000000000000000000000000000000000815260040161093d93929190612d59565b60405180910390fd5b50505050565b60075481565b61096d83838360405180602001604052806000815250611246565b505050565b6000662386f26fc100003410156109be576040517f08c379a00000000000000000000000000000000000000000000000000000000081526004016109b590612e02565b60405180910390fd5b6000600760008154809291906109d390612e51565b9190505590506109e38882611763565b6040518061012001604052808281526020018973ffffffffffffffffffffffffffffffffffffffff1681526020018881526020018761ffff1681526020018681526020018561ffff1681526020018481526020016000151581526020018973ffffffffffffffffffffffffffffffffffffffff16815250600860008381526020019081526020016000206000820151816000015560208201518160010160006101000a81548173ffffffffffffffffffffffffffffffffffffffff021916908373ffffffffffffffffffffffffffffffffffffffff1602179055506040820151816002015560608201518160030160006101000a81548161ffff021916908361ffff1602179055506080820151816004019081610b009190613045565b5060a08201518160050160006101000a81548161ffff021916908361ffff16021790555060c0820151816006015560e08201518160070160006101000a81548160ff0219169083151502179055506101008201518160070160016101000a81548173ffffffffffffffffffffffffffffffffffffffff021916908373ffffffffffffffffffffffffffffffffffffffff160217905550905050809150509695505050505050565b6000610bb28261146a565b9050919050565b60008073ffffffffffffffffffffffffffffffffffffffff168273ffffffffffffffffffffffffffffffffffffffff1603610c2c5760006040517f89c62b64000000000000000000000000000000000000000000000000000000008152600401610c2391906126fd565b60405180910390fd5b600360008373ffffffffffffffffffffffffffffffffffffffff1673ffffffffffffffffffffffffffffffffffffffff168152602001908152602001600020549050919050565b610c7b61185c565b610c8560006118e3565b565b6000600660009054906101000a900473ffffffffffffffffffffffffffffffffffffffff16905090565b606060018054610cc090612d28565b80601f0160208091040260200160405190810160405280929190818152602001828054610cec90612d28565b8015610d395780601f10610d0e57610100808354040283529160200191610d39565b820191906000526020600020905b815481529060010190602001808311610d1c57829003601f168201915b5050505050905090565b610d55610d4e61152f565b83836119a9565b5050565b803373ffffffffffffffffffffffffffffffffffffffff166008600083815260200190815260200160002060070160019054906101000a900473ffffffffffffffffffffffffffffffffffffffff1673ffffffffffffffffffffffffffffffffffffffff1614610dfe576040517f08c379a0000000000000000000000000000000000000000000000000000000008152600401610df590613189565b60405180910390fd5b3073ffffffffffffffffffffffffffffffffffffffff16636352211e836040518263ffffffff1660e01b8152600401610e379190612897565b602060405180830381865afa925050508015610e7157506040513d601f19601f82011682018060405250810190610e6e91906131be565b60015b610eb0576040517f08c379a0000000000000000000000000000000000000000000000000000000008152600401610ea790613237565b60405180910390fd5b506008600083815260200190815260200160002060070160009054906101000a900460ff1615610f15576040517f08c379a0000000000000000000000000000000000000000000000000000000008152600401610f0c906132a3565b60405180910390fd5b60016008600084815260200190815260200160002060070160006101000a81548160ff021916908315150217905550610f4d82611b18565b600860008381526020019081526020016000206000808201600090556001820160006101000a81549073ffffffffffffffffffffffffffffffffffffffff021916905560028201600090556003820160006101000a81549061ffff0219169055600482016000610fbd919061247b565b6005820160006101000a81549061ffff021916905560068201600090556007820160006101000a81549060ff02191690556007820160016101000a81549073ffffffffffffffffffffffffffffffffffffffff021916905550505050565b813373ffffffffffffffffffffffffffffffffffffffff166008600083815260200190815260200160002060070160019054906101000a900473ffffffffffffffffffffffffffffffffffffffff1673ffffffffffffffffffffffffffffffffffffffff16146110c0576040517f08c379a00000000000000000000000000000000000000000000000000000000081526004016110b790613189565b60405180910390fd5b3073ffffffffffffffffffffffffffffffffffffffff16636352211e846040518263ffffffff1660e01b81526004016110f99190612897565b602060405180830381865afa92505050801561113357506040513d601f19601f8201168201806040525081019061113091906131be565b60015b611172576040517f08c379a000000000000000000000000000000000000000000000000000000000815260040161116990613237565b60405180910390fd5b3373ffffffffffffffffffffffffffffffffffffffff168173ffffffffffffffffffffffffffffffffffffffff16146111e0576040517f08c379a00000000000000000000000000000000000000000000000000000000081526004016111d790613335565b60405180910390fd5b6111eb338486611b9e565b826008600086815260200190815260200160002060070160016101000a81548173ffffffffffffffffffffffffffffffffffffffff021916908373ffffffffffffffffffffffffffffffffffffffff16021790555050505050565b61125184848461084a565b61126561125c61152f565b85858585611d0b565b50505050565b600061127682610ba7565b9050919050565b60606112888261146a565b506000611293611ebc565b905060008151116112b357604051806020016040528060008152506112de565b806112bd84611ed3565b6040516020016112ce929190613391565b6040516020818303038152906040525b915050919050565b6000600560008473ffffffffffffffffffffffffffffffffffffffff1673ffffffffffffffffffffffffffffffffffffffff16815260200190815260200160002060008373ffffffffffffffffffffffffffffffffffffffff1673ffffffffffffffffffffffffffffffffffffffff16815260200190815260200160002060009054906101000a900460ff16905092915050565b61138261185c565b600073ffffffffffffffffffffffffffffffffffffffff168173ffffffffffffffffffffffffffffffffffffffff16036113f45760006040517f1e4fbdf70000000000000000000000000000000000000000000000000000000081526004016113eb91906126fd565b60405180910390fd5b6113fd816118e3565b50565b60007f01ffc9a7000000000000000000000000000000000000000000000000000000007bffffffffffffffffffffffffffffffffffffffffffffffffffffffff1916827bffffffffffffffffffffffffffffffffffffffffffffffffffffffff1916149050919050565b60008061147683611fa1565b9050600073ffffffffffffffffffffffffffffffffffffffff168173ffffffffffffffffffffffffffffffffffffffff16036114e957826040517f7e2732890000000000000000000000000000000000000000000000000000000081526004016114e09190612897565b60405180910390fd5b80915050919050565b60006004600083815260200190815260200160002060009054906101000a900473ffffffffffffffffffffffffffffffffffffffff169050919050565b600033905090565b6115448383836001611fde565b505050565b60008061155584611fa1565b9050600073ffffffffffffffffffffffffffffffffffffffff168373ffffffffffffffffffffffffffffffffffffffff1614611597576115968184866121a3565b5b600073ffffffffffffffffffffffffffffffffffffffff168173ffffffffffffffffffffffffffffffffffffffff1614611628576115d9600085600080611fde565b6001600360008373ffffffffffffffffffffffffffffffffffffffff1673ffffffffffffffffffffffffffffffffffffffff168152602001908152602001600020600082825403925050819055505b600073ffffffffffffffffffffffffffffffffffffffff168573ffffffffffffffffffffffffffffffffffffffff16146116ab576001600360008773ffffffffffffffffffffffffffffffffffffffff1673ffffffffffffffffffffffffffffffffffffffff168152602001908152602001600020600082825401925050819055505b846002600086815260200190815260200160002060006101000a81548173ffffffffffffffffffffffffffffffffffffffff021916908373ffffffffffffffffffffffffffffffffffffffff160217905550838573ffffffffffffffffffffffffffffffffffffffff168273ffffffffffffffffffffffffffffffffffffffff167fddf252ad1be2c89b69c2b068fc378daa952ba7f163c4a11628f55a4df523b3ef60405160405180910390a4809150509392505050565b600073ffffffffffffffffffffffffffffffffffffffff168273ffffffffffffffffffffffffffffffffffffffff16036117d55760006040517f64a0ae920000000000000000000000000000000000000000000000000000000081526004016117cc91906126fd565b60405180910390fd5b60006117e383836000611549565b9050600073ffffffffffffffffffffffffffffffffffffffff168173ffffffffffffffffffffffffffffffffffffffff16146118575760006040517f73c6ac6e00000000000000000000000000000000000000000000000000000000815260040161184e91906126fd565b60405180910390fd5b505050565b61186461152f565b73ffffffffffffffffffffffffffffffffffffffff16611882610c87565b73ffffffffffffffffffffffffffffffffffffffff16146118e1576118a561152f565b6040517f118cdaa70000000000000000000000000000000000000000000000000000000081526004016118d891906126fd565b60405180910390fd5b565b6000600660009054906101000a900473ffffffffffffffffffffffffffffffffffffffff16905081600660006101000a81548173ffffffffffffffffffffffffffffffffffffffff021916908373ffffffffffffffffffffffffffffffffffffffff1602179055508173ffffffffffffffffffffffffffffffffffffffff168173ffffffffffffffffffffffffffffffffffffffff167f8be0079c531659141344cd1fd0a4f28419497f9722a3daafe3b4186f6b6457e060405160405180910390a35050565b600073ffffffffffffffffffffffffffffffffffffffff168273ffffffffffffffffffffffffffffffffffffffff1603611a1a57816040517f5b08ba18000000000000000000000000000000000000000000000000000000008152600401611a1191906126fd565b60405180910390fd5b80600560008573ffffffffffffffffffffffffffffffffffffffff1673ffffffffffffffffffffffffffffffffffffffff16815260200190815260200160002060008473ffffffffffffffffffffffffffffffffffffffff1673ffffffffffffffffffffffffffffffffffffffff16815260200190815260200160002060006101000a81548160ff0219169083151502179055508173ffffffffffffffffffffffffffffffffffffffff168373ffffffffffffffffffffffffffffffffffffffff167f17307eab39ab6107e8899845ad3d59bd9653f200f220920489ca2b5937696c3183604051611b0b919061258c565b60405180910390a3505050565b6000611b276000836000611549565b9050600073ffffffffffffffffffffffffffffffffffffffff168173ffffffffffffffffffffffffffffffffffffffff1603611b9a57816040517f7e273289000000000000000000000000000000000000000000000000000000008152600401611b919190612897565b60405180910390fd5b5050565b600073ffffffffffffffffffffffffffffffffffffffff168273ffffffffffffffffffffffffffffffffffffffff1603611c105760006040517f64a0ae92000000000000000000000000000000000000000000000000000000008152600401611c0791906126fd565b60405180910390fd5b6000611c1e83836000611549565b9050600073ffffffffffffffffffffffffffffffffffffffff168173ffffffffffffffffffffffffffffffffffffffff1603611c9157816040517f7e273289000000000000000000000000000000000000000000000000000000008152600401611c889190612897565b60405180910390fd5b8373ffffffffffffffffffffffffffffffffffffffff168173ffffffffffffffffffffffffffffffffffffffff1614611d05578382826040517f64283d7b000000000000000000000000000000000000000000000000000000008152600401611cfc93929190612d59565b60405180910390fd5b50505050565b60008373ffffffffffffffffffffffffffffffffffffffff163b1115611eb5578273ffffffffffffffffffffffffffffffffffffffff1663150b7a02868685856040518563ffffffff1660e01b8152600401611d6a949392919061340a565b6020604051808303816000875af1925050508015611da657506040513d601f19601f82011682018060405250810190611da3919061346b565b60015b611e2a573d8060008114611dd6576040519150601f19603f3d011682016040523d82523d6000602084013e611ddb565b606091505b506000815103611e2257836040517f64a0ae92000000000000000000000000000000000000000000000000000000008152600401611e1991906126fd565b60405180910390fd5b805181602001fd5b63150b7a0260e01b7bffffffffffffffffffffffffffffffffffffffffffffffffffffffff1916817bffffffffffffffffffffffffffffffffffffffffffffffffffffffff191614611eb357836040517f64a0ae92000000000000000000000000000000000000000000000000000000008152600401611eaa91906126fd565b60405180910390fd5b505b5050505050565b606060405180602001604052806000815250905090565b606060006001611ee284612267565b01905060008167ffffffffffffffff811115611f0157611f006128e8565b5b6040519080825280601f01601f191660200182016040528015611f335781602001600182028036833780820191505090505b509050600082602001820190505b600115611f96578080600190039150507f3031323334353637383961626364656600000000000000000000000000000000600a86061a8153600a8581611f8a57611f89613498565b5b04945060008503611f41575b819350505050919050565b60006002600083815260200190815260200160002060009054906101000a900473ffffffffffffffffffffffffffffffffffffffff169050919050565b80806120175750600073ffffffffffffffffffffffffffffffffffffffff168273ffffffffffffffffffffffffffffffffffffffff1614155b1561214b5760006120278461146a565b9050600073ffffffffffffffffffffffffffffffffffffffff168373ffffffffffffffffffffffffffffffffffffffff161415801561209257508273ffffffffffffffffffffffffffffffffffffffff168173ffffffffffffffffffffffffffffffffffffffff1614155b80156120a557506120a381846112e6565b155b156120e757826040517fa9fbf51f0000000000000000000000000000000000000000000000000000000081526004016120de91906126fd565b60405180910390fd5b811561214957838573ffffffffffffffffffffffffffffffffffffffff168273ffffffffffffffffffffffffffffffffffffffff167f8c5be1e5ebec7d5bd14f71427d1e84f3dd0314c0f7b2291e5b200ac8c7c3b92560405160405180910390a45b505b836004600085815260200190815260200160002060006101000a81548173ffffffffffffffffffffffffffffffffffffffff021916908373ffffffffffffffffffffffffffffffffffffffff16021790555050505050565b6121ae8383836123ba565b61226257600073ffffffffffffffffffffffffffffffffffffffff168373ffffffffffffffffffffffffffffffffffffffff160361222357806040517f7e27328900000000000000000000000000000000000000000000000000000000815260040161221a9190612897565b60405180910390fd5b81816040517f177e802f0000000000000000000000000000000000000000000000000000000081526004016122599291906134c7565b60405180910390fd5b505050565b600080600090507a184f03e93ff9f4daa797ed6e38ed64bf6a1f01000000000000000083106122c5577a184f03e93ff9f4daa797ed6e38ed64bf6a1f01000000000000000083816122bb576122ba613498565b5b0492506040810190505b6d04ee2d6d415b85acef81000000008310612302576d04ee2d6d415b85acef810000000083816122f8576122f7613498565b5b0492506020810190505b662386f26fc10000831061233157662386f26fc10000838161232757612326613498565b5b0492506010810190505b6305f5e100831061235a576305f5e10083816123505761234f613498565b5b0492506008810190505b612710831061237f57612710838161237557612374613498565b5b0492506004810190505b606483106123a2576064838161239857612397613498565b5b0492506002810190505b600a83106123b1576001810190505b80915050919050565b60008073ffffffffffffffffffffffffffffffffffffffff168373ffffffffffffffffffffffffffffffffffffffff161415801561247257508273ffffffffffffffffffffffffffffffffffffffff168473ffffffffffffffffffffffffffffffffffffffff161480612433575061243284846112e6565b5b8061247157508273ffffffffffffffffffffffffffffffffffffffff16612459836114f2565b73ffffffffffffffffffffffffffffffffffffffff16145b5b90509392505050565b50805461248790612d28565b6000825580601f1061249957506124b8565b601f0160209004906000526020600020908101906124b791906124bb565b5b50565b5b808211156124d45760008160009055506001016124bc565b5090565b6000604051905090565b600080fd5b600080fd5b60007fffffffff0000000000000000000000000000000000000000000000000000000082169050919050565b612521816124ec565b811461252c57600080fd5b50565b60008135905061253e81612518565b92915050565b60006020828403121561255a576125596124e2565b5b60006125688482850161252f565b91505092915050565b60008115159050919050565b61258681612571565b82525050565b60006020820190506125a1600083018461257d565b92915050565b600081519050919050565b600082825260208201905092915050565b60005b838110156125e15780820151818401526020810190506125c6565b60008484015250505050565b6000601f19601f8301169050919050565b6000612609826125a7565b61261381856125b2565b93506126238185602086016125c3565b61262c816125ed565b840191505092915050565b6000602082019050818103600083015261265181846125fe565b905092915050565b6000819050919050565b61266c81612659565b811461267757600080fd5b50565b60008135905061268981612663565b92915050565b6000602082840312156126a5576126a46124e2565b5b60006126b38482850161267a565b91505092915050565b600073ffffffffffffffffffffffffffffffffffffffff82169050919050565b60006126e7826126bc565b9050919050565b6126f7816126dc565b82525050565b600060208201905061271260008301846126ee565b92915050565b612721816126dc565b811461272c57600080fd5b50565b60008135905061273e81612718565b92915050565b6000806040838503121561275b5761275a6124e2565b5b60006127698582860161272f565b925050602061277a8582860161267a565b9150509250929050565b61278d81612659565b82525050565b600061ffff82169050919050565b6127aa81612793565b82525050565b6000610120820190506127c6600083018c612784565b6127d3602083018b6126ee565b6127e0604083018a612784565b6127ed60608301896127a1565b81810360808301526127ff81886125fe565b905061280e60a08301876127a1565b61281b60c0830186612784565b61282860e083018561257d565b6128366101008301846126ee565b9a9950505050505050505050565b60008060006060848603121561285d5761285c6124e2565b5b600061286b8682870161272f565b935050602061287c8682870161272f565b925050604061288d8682870161267a565b9150509250925092565b60006020820190506128ac6000830184612784565b92915050565b6128bb81612793565b81146128c657600080fd5b50565b6000813590506128d8816128b2565b92915050565b600080fd5b600080fd5b7f4e487b7100000000000000000000000000000000000000000000000000000000600052604160045260246000fd5b612920826125ed565b810181811067ffffffffffffffff8211171561293f5761293e6128e8565b5b80604052505050565b60006129526124d8565b905061295e8282612917565b919050565b600067ffffffffffffffff82111561297e5761297d6128e8565b5b612987826125ed565b9050602081019050919050565b82818337600083830152505050565b60006129b66129b184612963565b612948565b9050828152602081018484840111156129d2576129d16128e3565b5b6129dd848285612994565b509392505050565b600082601f8301126129fa576129f96128de565b5b8135612a0a8482602086016129a3565b91505092915050565b60008060008060008060c08789031215612a3057612a2f6124e2565b5b6000612a3e89828a0161272f565b9650506020612a4f89828a0161267a565b9550506040612a6089828a016128c9565b945050606087013567ffffffffffffffff811115612a8157612a806124e7565b5b612a8d89828a016129e5565b9350506080612a9e89828a016128c9565b92505060a0612aaf89828a0161267a565b9150509295509295509295565b600060208284031215612ad257612ad16124e2565b5b6000612ae08482850161272f565b91505092915050565b612af281612571565b8114612afd57600080fd5b50565b600081359050612b0f81612ae9565b92915050565b60008060408385031215612b2c57612b2b6124e2565b5b6000612b3a8582860161272f565b9250506020612b4b85828601612b00565b9150509250929050565b60008060408385031215612b6c57612b6b6124e2565b5b6000612b7a8582860161267a565b9250506020612b8b8582860161272f565b9150509250929050565b600067ffffffffffffffff821115612bb057612baf6128e8565b5b612bb9826125ed565b9050602081019050919050565b6000612bd9612bd484612b95565b612948565b905082815260208101848484011115612bf557612bf46128e3565b5b612c00848285612994565b509392505050565b600082601f830112612c1d57612c1c6128de565b5b8135612c2d848260208601612bc6565b91505092915050565b60008060008060808587031215612c5057612c4f6124e2565b5b6000612c5e8782880161272f565b9450506020612c6f8782880161272f565b9350506040612c808782880161267a565b925050606085013567ffffffffffffffff811115612ca157612ca06124e7565b5b612cad87828801612c08565b91505092959194509250565b60008060408385031215612cd057612ccf6124e2565b5b6000612cde8582860161272f565b9250506020612cef8582860161272f565b9150509250929050565b7f4e487b7100000000000000000000000000000000000000000000000000000000600052602260045260246000fd5b60006002820490506001821680612d4057607f821691505b602082108103612d5357612d52612cf9565b5b50919050565b6000606082019050612d6e60008301866126ee565b612d7b6020830185612784565b612d8860408301846126ee565b949350505050565b7f4174206c6561737420302e30312045544820697320726571756972656420746f60008201527f206d696e742061206e65772057696e65204e4654000000000000000000000000602082015250565b6000612dec6034836125b2565b9150612df782612d90565b604082019050919050565b60006020820190508181036000830152612e1b81612ddf565b9050919050565b7f4e487b7100000000000000000000000000000000000000000000000000000000600052601160045260246000fd5b6000612e5c82612659565b91507fffffffffffffffffffffffffffffffffffffffffffffffffffffffffffffffff8203612e8e57612e8d612e22565b5b600182019050919050565b60008190508160005260206000209050919050565b60006020601f8301049050919050565b600082821b905092915050565b600060088302612efb7fffffffffffffffffffffffffffffffffffffffffffffffffffffffffffffffff82612ebe565b612f058683612ebe565b95508019841693508086168417925050509392505050565b6000819050919050565b6000612f42612f3d612f3884612659565b612f1d565b612659565b9050919050565b6000819050919050565b612f5c83612f27565b612f70612f6882612f49565b848454612ecb565b825550505050565b600090565b612f85612f78565b612f90818484612f53565b505050565b5b81811015612fb457612fa9600082612f7d565b600181019050612f96565b5050565b601f821115612ff957612fca81612e99565b612fd384612eae565b81016020851015612fe2578190505b612ff6612fee85612eae565b830182612f95565b50505b505050565b600082821c905092915050565b600061301c60001984600802612ffe565b1980831691505092915050565b6000613035838361300b565b9150826002028217905092915050565b61304e826125a7565b67ffffffffffffffff811115613067576130666128e8565b5b6130718254612d28565b61307c828285612fb8565b600060209050601f8311600181146130af576000841561309d578287015190505b6130a78582613029565b86555061310f565b601f1984166130bd86612e99565b60005b828110156130e5578489015182556001820191506020850194506020810190506130c0565b8683101561310257848901516130fe601f89168261300b565b8355505b6001600288020188555050505b505050505050565b7f43616c6c6572206973206e6f7420746865206f776e6572206f6620746865207760008201527f696e650000000000000000000000000000000000000000000000000000000000602082015250565b60006131736023836125b2565b915061317e82613117565b604082019050919050565b600060208201905081810360008301526131a281613166565b9050919050565b6000815190506131b881612718565b92915050565b6000602082840312156131d4576131d36124e2565b5b60006131e2848285016131a9565b91505092915050565b7f57696e65204e465420646f6573206e6f74206578697374000000000000000000600082015250565b60006132216017836125b2565b915061322c826131eb565b602082019050919050565b6000602082019050818103600083015261325081613214565b9050919050565b7f57696e652068617320616c7265616479206265656e2072656465656d65640000600082015250565b600061328d601e836125b2565b915061329882613257565b602082019050919050565b600060208201905081810360008301526132bc81613280565b9050919050565b7f596f7520617265206e6f7420746865206f776e6572206f66207468697320576960008201527f6e65204e46540000000000000000000000000000000000000000000000000000602082015250565b600061331f6026836125b2565b915061332a826132c3565b604082019050919050565b6000602082019050818103600083015261334e81613312565b9050919050565b600081905092915050565b600061336b826125a7565b6133758185613355565b93506133858185602086016125c3565b80840191505092915050565b600061339d8285613360565b91506133a98284613360565b91508190509392505050565b600081519050919050565b600082825260208201905092915050565b60006133dc826133b5565b6133e681856133c0565b93506133f68185602086016125c3565b6133ff816125ed565b840191505092915050565b600060808201905061341f60008301876126ee565b61342c60208301866126ee565b6134396040830185612784565b818103606083015261344b81846133d1565b905095945050505050565b60008151905061346581612518565b92915050565b600060208284031215613481576134806124e2565b5b600061348f84828501613456565b91505092915050565b7f4e487b7100000000000000000000000000000000000000000000000000000000600052601260045260246000fd5b60006040820190506134dc60008301856126ee565b6134e96020830184612784565b939250505056fea2646970667358221220decaaf2922b2880d038e8354e6a5764845489cc4a4a439e4f520e0a9cca8f41a64736f6c63430008140033",
  "immutableReferences": {},
  "source": "// SPDX-License-Identifier: MIT\r\npragma solidity ^0.8.20;\r\n\r\nimport \"@openzeppelin/contracts/token/ERC721/ERC721.sol\";\r\nimport \"@openzeppelin/contracts/access/Ownable.sol\";\r\n\r\ncontract WineNFT is ERC721, Ownable {\r\n    struct Wine {\r\n        uint256 wineId;\r\n        address producer;\r\n        uint256 price;\r\n        uint16 vintage;\r\n        string grapeVariety;\r\n        uint16 numberOfBottles;\r\n        uint256 maturityDate;\r\n        bool redeemed;\r\n        address owner;\r\n    }\r\n\r\n    uint256 public numWineNFTs;\r\n    mapping(uint256 => Wine) public wines;\r\n\r\n    function mintWine(\r\n        address producer,\r\n        uint256 price,\r\n        uint16 vintage,\r\n        string memory grapeVariety,\r\n        uint16 numberOfBottles,\r\n        uint256 maturityDate\r\n    ) public payable returns (uint256) {\r\n        require(\r\n            msg.value >= 0.01 ether,\r\n            \"At least 0.01 ETH is required to mint a new Wine NFT\"\r\n        );\r\n\r\n        uint256 newWineId = numWineNFTs++;\r\n        _mint(producer, newWineId);\r\n\r\n        wines[newWineId] = Wine({\r\n            wineId: newWineId,\r\n            producer: producer,\r\n            price: price,\r\n            vintage: vintage,\r\n            grapeVariety: grapeVariety,\r\n            numberOfBottles: numberOfBottles,\r\n            maturityDate: maturityDate,\r\n            redeemed: false,\r\n            owner: producer\r\n        });\r\n\r\n        return newWineId;\r\n    }\r\n\r\n    constructor(address initialOwner) ERC721(\"Wine NFT\", \"WINE\") Ownable(initialOwner) {}\r\n\r\n    modifier ownerOnly(uint256 wineId) {\r\n        require(\r\n            wines[wineId].owner == msg.sender,\r\n            \"Caller is not the owner of the wine\"\r\n        );\r\n        _;\r\n    }\r\n\r\n    function burnWine(uint256 wineId) public ownerOnly(wineId) {\r\n        try this.ownerOf(wineId) {\r\n            require(!wines[wineId].redeemed, \"Wine has already been redeemed\");\r\n            wines[wineId].redeemed = true;\r\n            _burn(wineId);\r\n            delete wines[wineId];\r\n        } catch {\r\n            revert(\"Wine NFT does not exist\");\r\n        }\r\n    }\r\n\r\n    function transfer(\r\n        uint256 wineId,\r\n        address newOwner\r\n    ) public ownerOnly(wineId) {\r\n        try this.ownerOf(wineId) returns (address currentOwner) {\r\n            require(\r\n                currentOwner == msg.sender,\r\n                \"You are not the owner of this Wine NFT\"\r\n            );\r\n            _transfer(msg.sender, newOwner, wineId);\r\n            wines[wineId].owner = newOwner;\r\n        } catch {\r\n            revert(\"Wine NFT does not exist\");\r\n        }\r\n    }\r\n\r\n    function getOwner(uint256 wineId) public view returns (address) {\r\n        return ownerOf(wineId);\r\n    }\r\n}\r\n",
  "sourcePath": "C:\\Users\\izlim\\Desktop\\Y3S1\\IS4302\\vin-futures-solidity\\contracts\\WineNFT.sol",
  "compiler": {
    "name": "solc",
    "version": "0.8.20+commit.a1b79de6.Emscripten.clang"
  },
  "schemaVersion": "3.4.16",
  "updatedAt": "2024-10-25T16:36:17.525Z",
  "networkType": "ethereum",
  "devdoc": {
    "errors": {
      "ERC721IncorrectOwner(address,uint256,address)": [
        {
          "details": "Indicates an error related to the ownership over a particular token. Used in transfers.",
          "params": {
            "owner": "Address of the current owner of a token.",
            "sender": "Address whose tokens are being transferred.",
            "tokenId": "Identifier number of a token."
          }
        }
      ],
      "ERC721InsufficientApproval(address,uint256)": [
        {
          "details": "Indicates a failure with the `operator`s approval. Used in transfers.",
          "params": {
            "operator": "Address that may be allowed to operate on tokens without being their owner.",
            "tokenId": "Identifier number of a token."
          }
        }
      ],
      "ERC721InvalidApprover(address)": [
        {
          "details": "Indicates a failure with the `approver` of a token to be approved. Used in approvals.",
          "params": {
            "approver": "Address initiating an approval operation."
          }
        }
      ],
      "ERC721InvalidOperator(address)": [
        {
          "details": "Indicates a failure with the `operator` to be approved. Used in approvals.",
          "params": {
            "operator": "Address that may be allowed to operate on tokens without being their owner."
          }
        }
      ],
      "ERC721InvalidOwner(address)": [
        {
          "details": "Indicates that an address can't be an owner. For example, `address(0)` is a forbidden owner in ERC-20. Used in balance queries.",
          "params": {
            "owner": "Address of the current owner of a token."
          }
        }
      ],
      "ERC721InvalidReceiver(address)": [
        {
          "details": "Indicates a failure with the token `receiver`. Used in transfers.",
          "params": {
            "receiver": "Address to which tokens are being transferred."
          }
        }
      ],
      "ERC721InvalidSender(address)": [
        {
          "details": "Indicates a failure with the token `sender`. Used in transfers.",
          "params": {
            "sender": "Address whose tokens are being transferred."
          }
        }
      ],
      "ERC721NonexistentToken(uint256)": [
        {
          "details": "Indicates a `tokenId` whose `owner` is the zero address.",
          "params": {
            "tokenId": "Identifier number of a token."
          }
        }
      ],
      "OwnableInvalidOwner(address)": [
        {
          "details": "The owner is not a valid owner account. (eg. `address(0)`)"
        }
      ],
      "OwnableUnauthorizedAccount(address)": [
        {
          "details": "The caller account is not authorized to perform an operation."
        }
      ]
    },
    "events": {
      "Approval(address,address,uint256)": {
        "details": "Emitted when `owner` enables `approved` to manage the `tokenId` token."
      },
      "ApprovalForAll(address,address,bool)": {
        "details": "Emitted when `owner` enables or disables (`approved`) `operator` to manage all of its assets."
      },
      "Transfer(address,address,uint256)": {
        "details": "Emitted when `tokenId` token is transferred from `from` to `to`."
      }
    },
    "kind": "dev",
    "methods": {
      "approve(address,uint256)": {
        "details": "See {IERC721-approve}."
      },
      "balanceOf(address)": {
        "details": "See {IERC721-balanceOf}."
      },
      "getApproved(uint256)": {
        "details": "See {IERC721-getApproved}."
      },
      "isApprovedForAll(address,address)": {
        "details": "See {IERC721-isApprovedForAll}."
      },
      "name()": {
        "details": "See {IERC721Metadata-name}."
      },
      "owner()": {
        "details": "Returns the address of the current owner."
      },
      "ownerOf(uint256)": {
        "details": "See {IERC721-ownerOf}."
      },
      "renounceOwnership()": {
        "details": "Leaves the contract without owner. It will not be possible to call `onlyOwner` functions. Can only be called by the current owner. NOTE: Renouncing ownership will leave the contract without an owner, thereby disabling any functionality that is only available to the owner."
      },
      "safeTransferFrom(address,address,uint256)": {
        "details": "See {IERC721-safeTransferFrom}."
      },
      "safeTransferFrom(address,address,uint256,bytes)": {
        "details": "See {IERC721-safeTransferFrom}."
      },
      "setApprovalForAll(address,bool)": {
        "details": "See {IERC721-setApprovalForAll}."
      },
      "supportsInterface(bytes4)": {
        "details": "See {IERC165-supportsInterface}."
      },
      "symbol()": {
        "details": "See {IERC721Metadata-symbol}."
      },
      "tokenURI(uint256)": {
        "details": "See {IERC721Metadata-tokenURI}."
      },
      "transferFrom(address,address,uint256)": {
        "details": "See {IERC721-transferFrom}."
      },
      "transferOwnership(address)": {
        "details": "Transfers ownership of the contract to a new account (`newOwner`). Can only be called by the current owner."
      }
    },
    "version": 1
  },
  "userdoc": {
    "kind": "user",
    "methods": {},
    "version": 1
  }
}