{
  "contractName": "WineDistributor",
  "abi": [
    {
      "inputs": [
        {
          "internalType": "contract WineMarketplace",
          "name": "_marketplace",
          "type": "address"
        }
      ],
      "stateMutability": "nonpayable",
      "type": "constructor"
    },
    {
      "inputs": [],
      "name": "marketplace",
      "outputs": [
        {
          "internalType": "contract WineMarketplace",
          "name": "",
          "type": "address"
        }
      ],
      "stateMutability": "view",
      "type": "function",
      "constant": true
    },
    {
      "inputs": [
        {
          "internalType": "uint256",
          "name": "tokenId",
          "type": "uint256"
        }
      ],
      "name": "buyWine",
      "outputs": [],
      "stateMutability": "payable",
      "type": "function",
      "payable": true
    },
    {
      "inputs": [
        {
          "internalType": "uint256",
          "name": "tokenId",
          "type": "uint256"
        },
        {
          "internalType": "uint256",
          "name": "price",
          "type": "uint256"
        }
      ],
      "name": "listWineForSale",
      "outputs": [],
      "stateMutability": "nonpayable",
      "type": "function"
    },
    {
      "inputs": [
        {
          "internalType": "uint256",
          "name": "tokenId",
          "type": "uint256"
        }
      ],
      "name": "redeemWineNFT",
      "outputs": [],
      "stateMutability": "nonpayable",
      "type": "function"
    }
  ],
  "bytecode": "0x608060405234801561001057600080fd5b506040516105a33803806105a3833981810160405281019061003291906100ed565b806000806101000a81548173ffffffffffffffffffffffffffffffffffffffff021916908373ffffffffffffffffffffffffffffffffffffffff1602179055505061011a565b600080fd5b600073ffffffffffffffffffffffffffffffffffffffff82169050919050565b60006100a88261007d565b9050919050565b60006100ba8261009d565b9050919050565b6100ca816100af565b81146100d557600080fd5b50565b6000815190506100e7816100c1565b92915050565b60006020828403121561010357610102610078565b5b6000610111848285016100d8565b91505092915050565b61047a806101296000396000f3fe60806040526004361061003f5760003560e01c806336d8be1314610044578063aaec22621461006d578063abc8c7af14610096578063cbcf2349146100c1575b600080fd5b34801561005057600080fd5b5061006b600480360381019061006691906102ea565b6100dd565b005b34801561007957600080fd5b50610094600480360381019061008f919061032a565b61016e565b005b3480156100a257600080fd5b506100ab6101fc565b6040516100b891906103d6565b60405180910390f35b6100db60048036038101906100d6919061032a565b610220565b005b60008054906101000a900473ffffffffffffffffffffffffffffffffffffffff1673ffffffffffffffffffffffffffffffffffffffff166394383f1483836040518363ffffffff1660e01b8152600401610138929190610400565b600060405180830381600087803b15801561015257600080fd5b505af1158015610166573d6000803e3d6000fd5b505050505050565b60008054906101000a900473ffffffffffffffffffffffffffffffffffffffff1673ffffffffffffffffffffffffffffffffffffffff166358dc2cdb826040518263ffffffff1660e01b81526004016101c79190610429565b600060405180830381600087803b1580156101e157600080fd5b505af11580156101f5573d6000803e3d6000fd5b5050505050565b60008054906101000a900473ffffffffffffffffffffffffffffffffffffffff1681565b60008054906101000a900473ffffffffffffffffffffffffffffffffffffffff1673ffffffffffffffffffffffffffffffffffffffff166351ed828834836040518363ffffffff1660e01b815260040161027a9190610429565b6000604051808303818588803b15801561029357600080fd5b505af11580156102a7573d6000803e3d6000fd5b505050505050565b600080fd5b6000819050919050565b6102c7816102b4565b81146102d257600080fd5b50565b6000813590506102e4816102be565b92915050565b60008060408385031215610301576103006102af565b5b600061030f858286016102d5565b9250506020610320858286016102d5565b9150509250929050565b6000602082840312156103405761033f6102af565b5b600061034e848285016102d5565b91505092915050565b600073ffffffffffffffffffffffffffffffffffffffff82169050919050565b6000819050919050565b600061039c61039761039284610357565b610377565b610357565b9050919050565b60006103ae82610381565b9050919050565b60006103c0826103a3565b9050919050565b6103d0816103b5565b82525050565b60006020820190506103eb60008301846103c7565b92915050565b6103fa816102b4565b82525050565b600060408201905061041560008301856103f1565b61042260208301846103f1565b9392505050565b600060208201905061043e60008301846103f1565b9291505056fea2646970667358221220939cf3023361b539bed46ebb21aa907704631c16ad4773d3504f6bcf05f721fd64736f6c63430008140033",
  "immutableReferences": {},
  "source": "// SPDX-License-Identifier: MIT\r\n\r\npragma solidity ^0.8.20;\r\n\r\nimport \"./WineMarketplace.sol\";\r\n\r\ncontract WineDistributor {\r\n    WineMarketplace public marketplace;\r\n\r\n    constructor(WineMarketplace _marketplace) {\r\n        marketplace = _marketplace;\r\n    }\r\n\r\n    function buyWine(uint256 tokenId) public payable {\r\n        marketplace.buyNFT{value: msg.value}(tokenId);\r\n    }\r\n\r\n    function listWineForSale(uint256 tokenId, uint256 price) public {\r\n        marketplace.listNFT(tokenId, price);\r\n    }\r\n\r\n    function redeemWineNFT(uint256 tokenId) public {\r\n        marketplace.redeemNFT(tokenId);\r\n    }\r\n}\r\n",
  "sourcePath": "C:\\Users\\izlim\\Desktop\\Y3S1\\IS4302\\vin-futures-solidity\\contracts\\WineDistributor.sol",
  "compiler": {
    "name": "solc",
    "version": "0.8.20+commit.a1b79de6.Emscripten.clang"
  },
  "schemaVersion": "3.4.16",
  "updatedAt": "2024-10-25T16:36:17.543Z",
  "networkType": "ethereum",
  "devdoc": {
    "kind": "dev",
    "methods": {},
    "version": 1
  },
  "userdoc": {
    "kind": "user",
    "methods": {},
    "version": 1
  }
}