{
  "contractName": "WineProducer",
  "abi": [
    {
      "inputs": [
        {
          "internalType": "contract WineNFT",
          "name": "_wineNFT",
          "type": "address"
        }
      ],
      "stateMutability": "nonpayable",
      "type": "constructor"
    },
    {
      "inputs": [],
      "name": "wineNFT",
      "outputs": [
        {
          "internalType": "contract WineNFT",
          "name": "",
          "type": "address"
        }
      ],
      "stateMutability": "view",
      "type": "function",
      "constant": true
    },
    {
      "inputs": [
        {
          "internalType": "uint256",
          "name": "price",
          "type": "uint256"
        },
        {
          "internalType": "uint16",
          "name": "vintage",
          "type": "uint16"
        },
        {
          "internalType": "string",
          "name": "grapeVariety",
          "type": "string"
        },
        {
          "internalType": "uint16",
          "name": "numberOfBottles",
          "type": "uint16"
        },
        {
          "internalType": "uint256",
          "name": "maturityDate",
          "type": "uint256"
        }
      ],
      "name": "createWineNFT",
      "outputs": [],
      "stateMutability": "nonpayable",
      "type": "function"
    }
  ],
  "bytecode": "0x608060405234801561001057600080fd5b50604051610709380380610709833981810160405281019061003291906100ed565b806000806101000a81548173ffffffffffffffffffffffffffffffffffffffff021916908373ffffffffffffffffffffffffffffffffffffffff1602179055505061011a565b600080fd5b600073ffffffffffffffffffffffffffffffffffffffff82169050919050565b60006100a88261007d565b9050919050565b60006100ba8261009d565b9050919050565b6100ca816100af565b81146100d557600080fd5b50565b6000815190506100e7816100c1565b92915050565b60006020828403121561010357610102610078565b5b6000610111848285016100d8565b91505092915050565b6105e0806101296000396000f3fe608060405234801561001057600080fd5b50600436106100365760003560e01c806315b7b9c61461003b578063bc86489214610057575b600080fd5b61005560048036038101906100509190610311565b610075565b005b61005f610123565b60405161006c9190610427565b60405180910390f35b60008054906101000a900473ffffffffffffffffffffffffffffffffffffffff1673ffffffffffffffffffffffffffffffffffffffff166361558c543387878787876040518763ffffffff1660e01b81526004016100d896959493929190610500565b6020604051808303816000875af11580156100f7573d6000803e3d6000fd5b505050506040513d601f19601f8201168201806040525081019061011b919061057d565b505050505050565b60008054906101000a900473ffffffffffffffffffffffffffffffffffffffff1681565b6000604051905090565b600080fd5b600080fd5b6000819050919050565b61016e8161015b565b811461017957600080fd5b50565b60008135905061018b81610165565b92915050565b600061ffff82169050919050565b6101a881610191565b81146101b357600080fd5b50565b6000813590506101c58161019f565b92915050565b600080fd5b600080fd5b6000601f19601f8301169050919050565b7f4e487b7100000000000000000000000000000000000000000000000000000000600052604160045260246000fd5b61021e826101d5565b810181811067ffffffffffffffff8211171561023d5761023c6101e6565b5b80604052505050565b6000610250610147565b905061025c8282610215565b919050565b600067ffffffffffffffff82111561027c5761027b6101e6565b5b610285826101d5565b9050602081019050919050565b82818337600083830152505050565b60006102b46102af84610261565b610246565b9050828152602081018484840111156102d0576102cf6101d0565b5b6102db848285610292565b509392505050565b600082601f8301126102f8576102f76101cb565b5b81356103088482602086016102a1565b91505092915050565b600080600080600060a0868803121561032d5761032c610151565b5b600061033b8882890161017c565b955050602061034c888289016101b6565b945050604086013567ffffffffffffffff81111561036d5761036c610156565b5b610379888289016102e3565b935050606061038a888289016101b6565b925050608061039b8882890161017c565b9150509295509295909350565b600073ffffffffffffffffffffffffffffffffffffffff82169050919050565b6000819050919050565b60006103ed6103e86103e3846103a8565b6103c8565b6103a8565b9050919050565b60006103ff826103d2565b9050919050565b6000610411826103f4565b9050919050565b61042181610406565b82525050565b600060208201905061043c6000830184610418565b92915050565b600061044d826103a8565b9050919050565b61045d81610442565b82525050565b61046c8161015b565b82525050565b61047b81610191565b82525050565b600081519050919050565b600082825260208201905092915050565b60005b838110156104bb5780820151818401526020810190506104a0565b60008484015250505050565b60006104d282610481565b6104dc818561048c565b93506104ec81856020860161049d565b6104f5816101d5565b840191505092915050565b600060c0820190506105156000830189610454565b6105226020830188610463565b61052f6040830187610472565b818103606083015261054181866104c7565b90506105506080830185610472565b61055d60a0830184610463565b979650505050505050565b60008151905061057781610165565b92915050565b60006020828403121561059357610592610151565b5b60006105a184828501610568565b9150509291505056fea264697066735822122010d9cb888e80dc54408f958a814a12b2b64ab1282554227561ae59ead5a0780b64736f6c63430008140033",
  "immutableReferences": {},
  "source": "// SPDX-License-Identifier: MIT\r\n\r\npragma solidity ^0.8.20;\r\n\r\nimport \"./WineNFT.sol\";\r\n\r\ncontract WineProducer {\r\n    WineNFT public wineNFT;\r\n\r\n    constructor(WineNFT _wineNFT) {\r\n        wineNFT = _wineNFT;\r\n    }\r\n\r\n    function createWineNFT(\r\n        uint256 price,\r\n        uint16 vintage,\r\n        string memory grapeVariety,\r\n        uint16 numberOfBottles,\r\n        uint256 maturityDate\r\n    ) public {\r\n        wineNFT.mintWine(msg.sender, price, vintage, grapeVariety, numberOfBottles, maturityDate);\r\n    }\r\n}\r\n",
  "sourcePath": "C:\\Users\\izlim\\Desktop\\Y3S1\\IS4302\\vin-futures-solidity\\contracts\\WineProducer.sol",
  "compiler": {
    "name": "solc",
    "version": "0.8.20+commit.a1b79de6.Emscripten.clang"
  },
  "schemaVersion": "3.4.16",
  "updatedAt": "2024-10-25T16:36:17.540Z",
  "networkType": "ethereum",
  "devdoc": {
    "kind": "dev",
    "methods": {},
    "version": 1
  },
  "userdoc": {
    "kind": "user",
    "methods": {},
    "version": 1
  }
}