{
  "contractName": "WineMarketplace",
  "abi": [
    {
      "inputs": [
        {
          "internalType": "contract WineNFT",
          "name": "_wineNFT",
          "type": "address"
        }
      ],
      "stateMutability": "nonpayable",
      "type": "constructor"
    },
    {
      "anonymous": false,
      "inputs": [
        {
          "indexed": false,
          "internalType": "uint256",
          "name": "tokenId",
          "type": "uint256"
        },
        {
          "indexed": false,
          "internalType": "address",
          "name": "seller",
          "type": "address"
        },
        {
          "indexed": false,
          "internalType": "uint256",
          "name": "price",
          "type": "uint256"
        }
      ],
      "name": "NFTListed",
      "type": "event"
    },
    {
      "anonymous": false,
      "inputs": [
        {
          "indexed": false,
          "internalType": "uint256",
          "name": "tokenId",
          "type": "uint256"
        },
        {
          "indexed": false,
          "internalType": "address",
          "name": "buyer",
          "type": "address"
        }
      ],
      "name": "NFTPurchased",
      "type": "event"
    },
    {
      "anonymous": false,
      "inputs": [
        {
          "indexed": false,
          "internalType": "uint256",
          "name": "tokenId",
          "type": "uint256"
        },
        {
          "indexed": false,
          "internalType": "address",
          "name": "owner",
          "type": "address"
        }
      ],
      "name": "NFTRedeemed",
      "type": "event"
    },
    {
      "inputs": [
        {
          "internalType": "uint256",
          "name": "",
          "type": "uint256"
        }
      ],
      "name": "listings",
      "outputs": [
        {
          "internalType": "uint256",
          "name": "tokenId",
          "type": "uint256"
        },
        {
          "internalType": "address",
          "name": "seller",
          "type": "address"
        },
        {
          "internalType": "uint256",
          "name": "price",
          "type": "uint256"
        }
      ],
      "stateMutability": "view",
      "type": "function"
    },
    {
      "inputs": [],
      "name": "wineNFT",
      "outputs": [
        {
          "internalType": "contract WineNFT",
          "name": "",
          "type": "address"
        }
      ],
      "stateMutability": "view",
      "type": "function"
    },
    {
      "inputs": [
        {
          "internalType": "uint256",
          "name": "tokenId",
          "type": "uint256"
        },
        {
          "internalType": "uint256",
          "name": "price",
          "type": "uint256"
        }
      ],
      "name": "listNFT",
      "outputs": [],
      "stateMutability": "nonpayable",
      "type": "function"
    },
    {
      "inputs": [
        {
          "internalType": "uint256",
          "name": "tokenId",
          "type": "uint256"
        }
      ],
      "name": "buyNFT",
      "outputs": [],
      "stateMutability": "payable",
      "type": "function"
    },
    {
      "inputs": [
        {
          "internalType": "uint256",
          "name": "tokenId",
          "type": "uint256"
        }
      ],
      "name": "redeemNFT",
      "outputs": [],
      "stateMutability": "nonpayable",
      "type": "function"
    }
  ],
  "bytecode": "0x608060405234801561000f575f5ffd5b506040516110f53803806110f5833981810160405281019061003191906100e5565b805f5f6101000a81548173ffffffffffffffffffffffffffffffffffffffff021916908373ffffffffffffffffffffffffffffffffffffffff16021790555050610110565b5f5ffd5b5f73ffffffffffffffffffffffffffffffffffffffff82169050919050565b5f6100a38261007a565b9050919050565b5f6100b482610099565b9050919050565b6100c4816100aa565b81146100ce575f5ffd5b50565b5f815190506100df816100bb565b92915050565b5f602082840312156100fa576100f9610076565b5b5f610107848285016100d1565b91505092915050565b610fd88061011d5f395ff3fe608060405260043610610049575f3560e01c806351ed82881461004d57806358dc2cdb1461006957806394383f1414610091578063bc864892146100b9578063de74e57b146100e3575b5f5ffd5b6100676004803603810190610062919061093f565b610121565b005b348015610074575f5ffd5b5061008f600480360381019061008a919061093f565b610348565b005b34801561009c575f5ffd5b506100b760048036038101906100b2919061096a565b61066f565b005b3480156100c4575f5ffd5b506100cd610892565b6040516100da9190610a22565b60405180910390f35b3480156100ee575f5ffd5b506101096004803603810190610104919061093f565b6108b6565b60405161011893929190610a6a565b60405180910390f35b5f60015f8381526020019081526020015f206040518060600160405290815f8201548152602001600182015f9054906101000a900473ffffffffffffffffffffffffffffffffffffffff1673ffffffffffffffffffffffffffffffffffffffff1673ffffffffffffffffffffffffffffffffffffffff1681526020016002820154815250509050806040015134146101ee576040517f08c379a00000000000000000000000000000000000000000000000000000000081526004016101e590610af9565b60405180910390fd5b5f5f9054906101000a900473ffffffffffffffffffffffffffffffffffffffff1673ffffffffffffffffffffffffffffffffffffffff166342842e0e826020015133856040518463ffffffff1660e01b815260040161024f93929190610b17565b5f604051808303815f87803b158015610266575f5ffd5b505af1158015610278573d5f5f3e3d5ffd5b50505050806020015173ffffffffffffffffffffffffffffffffffffffff166108fc3490811502906040515f60405180830381858888f193505050501580156102c3573d5f5f3e3d5ffd5b5060015f8381526020019081526020015f205f5f82015f9055600182015f6101000a81549073ffffffffffffffffffffffffffffffffffffffff0219169055600282015f905550507fbebca6653c629a651174dc2ea9b9f7ef506290dee89fe1a6087eb1e12c06d430823360405161033c929190610b4c565b60405180910390a15050565b3373ffffffffffffffffffffffffffffffffffffffff165f5f9054906101000a900473ffffffffffffffffffffffffffffffffffffffff1673ffffffffffffffffffffffffffffffffffffffff16636352211e836040518263ffffffff1660e01b81526004016103b89190610b73565b602060405180830381865afa1580156103d3573d5f5f3e3d5ffd5b505050506040513d601f19601f820116820180604052508101906103f79190610bb6565b73ffffffffffffffffffffffffffffffffffffffff161461044d576040517f08c379a000000000000000000000000000000000000000000000000000000000815260040161044490610c2b565b60405180910390fd5b5f5f5f5f5f5f5f5f5f5f9054906101000a900473ffffffffffffffffffffffffffffffffffffffff1673ffffffffffffffffffffffffffffffffffffffff166313351db38a6040518263ffffffff1660e01b81526004016104ae9190610b73565b5f60405180830381865afa1580156104c8573d5f5f3e3d5ffd5b505050506040513d5f823e3d601f19601f820116820180604052508101906104f09190610e05565b975097509750975097509750975097505f6040518061010001604052808a81526020018973ffffffffffffffffffffffffffffffffffffffff1681526020018881526020018761ffff1681526020018681526020018561ffff1681526020018481526020018315158152509050428160c0015111156105a4576040517f08c379a000000000000000000000000000000000000000000000000000000000815260040161059b90610f1c565b60405180910390fd5b5f5f9054906101000a900473ffffffffffffffffffffffffffffffffffffffff1673ffffffffffffffffffffffffffffffffffffffff1663a45aac718a6040518263ffffffff1660e01b81526004016105fd9190610b73565b5f604051808303815f87803b158015610614575f5ffd5b505af1158015610626573d5f5f3e3d5ffd5b505050507f7be71752f68c15e043adc3b4f121846c1f4860a79b7e8ecc932ddbc10e63b493893360405161065b929190610b4c565b60405180910390a150505050505050505050565b3373ffffffffffffffffffffffffffffffffffffffff165f5f9054906101000a900473ffffffffffffffffffffffffffffffffffffffff1673ffffffffffffffffffffffffffffffffffffffff16636352211e846040518263ffffffff1660e01b81526004016106df9190610b73565b602060405180830381865afa1580156106fa573d5f5f3e3d5ffd5b505050506040513d601f19601f8201168201806040525081019061071e9190610bb6565b73ffffffffffffffffffffffffffffffffffffffff1614610774576040517f08c379a000000000000000000000000000000000000000000000000000000000815260040161076b90610c2b565b60405180910390fd5b5f81116107b6576040517f08c379a00000000000000000000000000000000000000000000000000000000081526004016107ad90610f84565b60405180910390fd5b60405180606001604052808381526020013373ffffffffffffffffffffffffffffffffffffffff1681526020018281525060015f8481526020019081526020015f205f820151815f01556020820151816001015f6101000a81548173ffffffffffffffffffffffffffffffffffffffff021916908373ffffffffffffffffffffffffffffffffffffffff160217905550604082015181600201559050507f5f9c03de076f5063cd3ebcfe8ef7aa8af378e4b35a83c77ba9777e97083879a282338360405161088693929190610a6a565b60405180910390a15050565b5f5f9054906101000a900473ffffffffffffffffffffffffffffffffffffffff1681565b6001602052805f5260405f205f91509050805f015490806001015f9054906101000a900473ffffffffffffffffffffffffffffffffffffffff16908060020154905083565b5f604051905090565b5f5ffd5b5f5ffd5b5f819050919050565b61091e8161090c565b8114610928575f5ffd5b50565b5f8135905061093981610915565b92915050565b5f6020828403121561095457610953610904565b5b5f6109618482850161092b565b91505092915050565b5f5f604083850312156109805761097f610904565b5b5f61098d8582860161092b565b925050602061099e8582860161092b565b9150509250929050565b5f73ffffffffffffffffffffffffffffffffffffffff82169050919050565b5f819050919050565b5f6109ea6109e56109e0846109a8565b6109c7565b6109a8565b9050919050565b5f6109fb826109d0565b9050919050565b5f610a0c826109f1565b9050919050565b610a1c81610a02565b82525050565b5f602082019050610a355f830184610a13565b92915050565b610a448161090c565b82525050565b5f610a54826109a8565b9050919050565b610a6481610a4a565b82525050565b5f606082019050610a7d5f830186610a3b565b610a8a6020830185610a5b565b610a976040830184610a3b565b949350505050565b5f82825260208201905092915050565b7f496e636f727265637420707269636500000000000000000000000000000000005f82015250565b5f610ae3600f83610a9f565b9150610aee82610aaf565b602082019050919050565b5f6020820190508181035f830152610b1081610ad7565b9050919050565b5f606082019050610b2a5f830186610a5b565b610b376020830185610a5b565b610b446040830184610a3b565b949350505050565b5f604082019050610b5f5f830185610a3b565b610b6c6020830184610a5b565b9392505050565b5f602082019050610b865f830184610a3b565b92915050565b610b9581610a4a565b8114610b9f575f5ffd5b50565b5f81519050610bb081610b8c565b92915050565b5f60208284031215610bcb57610bca610904565b5b5f610bd884828501610ba2565b91505092915050565b7f4e6f74206f776e657200000000000000000000000000000000000000000000005f82015250565b5f610c15600983610a9f565b9150610c2082610be1565b602082019050919050565b5f6020820190508181035f830152610c4281610c09565b9050919050565b5f81519050610c5781610915565b92915050565b5f61ffff82169050919050565b610c7381610c5d565b8114610c7d575f5ffd5b50565b5f81519050610c8e81610c6a565b92915050565b5f5ffd5b5f5ffd5b5f601f19601f8301169050919050565b7f4e487b71000000000000000000000000000000000000000000000000000000005f52604160045260245ffd5b610ce282610c9c565b810181811067ffffffffffffffff82111715610d0157610d00610cac565b5b80604052505050565b5f610d136108fb565b9050610d1f8282610cd9565b919050565b5f67ffffffffffffffff821115610d3e57610d3d610cac565b5b610d4782610c9c565b9050602081019050919050565b8281835e5f83830152505050565b5f610d74610d6f84610d24565b610d0a565b905082815260208101848484011115610d9057610d8f610c98565b5b610d9b848285610d54565b509392505050565b5f82601f830112610db757610db6610c94565b5b8151610dc7848260208601610d62565b91505092915050565b5f8115159050919050565b610de481610dd0565b8114610dee575f5ffd5b50565b5f81519050610dff81610ddb565b92915050565b5f5f5f5f5f5f5f5f610100898b031215610e2257610e21610904565b5b5f610e2f8b828c01610c49565b9850506020610e408b828c01610ba2565b9750506040610e518b828c01610c49565b9650506060610e628b828c01610c80565b955050608089015167ffffffffffffffff811115610e8357610e82610908565b5b610e8f8b828c01610da3565b94505060a0610ea08b828c01610c80565b93505060c0610eb18b828c01610c49565b92505060e0610ec28b828c01610df1565b9150509295985092959890939650565b7f57696e65206973206e6f7420726561647920666f7220726564656d7074696f6e5f82015250565b5f610f06602083610a9f565b9150610f1182610ed2565b602082019050919050565b5f6020820190508181035f830152610f3381610efa565b9050919050565b7f5072696365206d7573742062652067726561746572207468616e2030000000005f82015250565b5f610f6e601c83610a9f565b9150610f7982610f3a565b602082019050919050565b5f6020820190508181035f830152610f9b81610f62565b905091905056fea2646970667358221220ca8223650c906b37ee9aa405205c196e3f64353dfe63fb268e1d92419128772764736f6c634300081c0033",
  "immutableReferences": {},
  "source": "pragma solidity ^0.8.0;\n\nimport \"./WineNFT.sol\";\n\ncontract WineMarketplace {\n    struct Listing {\n        uint256 tokenId;\n        address seller;\n        uint256 price;\n    }\n\n    WineNFT public wineNFT;\n    mapping(uint256 => Listing) public listings;\n\n    event NFTListed(uint256 tokenId, address seller, uint256 price);\n    event NFTPurchased(uint256 tokenId, address buyer);\n    event NFTRedeemed(uint256 tokenId, address owner);\n\n    constructor(WineNFT _wineNFT) {\n        wineNFT = _wineNFT;\n    }\n\n    function listNFT(uint256 tokenId, uint256 price) public {\n        require(wineNFT.ownerOf(tokenId) == msg.sender, \"Not owner\");\n        require(price > 0, \"Price must be greater than 0\");\n\n        listings[tokenId] = Listing({\n            tokenId: tokenId,\n            seller: msg.sender,\n            price: price\n        });\n\n        emit NFTListed(tokenId, msg.sender, price);\n    }\n\n    function buyNFT(uint256 tokenId) public payable {\n        Listing memory listing = listings[tokenId];\n        require(msg.value == listing.price, \"Incorrect price\");\n\n        wineNFT.safeTransferFrom(listing.seller, msg.sender, tokenId);\n        payable(listing.seller).transfer(msg.value);\n\n        delete listings[tokenId];\n        emit NFTPurchased(tokenId, msg.sender);\n    }\n\n    function redeemNFT(uint256 tokenId) public {\n        require(wineNFT.ownerOf(tokenId) == msg.sender, \"Not owner\");\n        (\n            uint256 tokenId,\n            address producer,\n            uint256 price,\n            uint16 vintage,\n            string memory grapeVariety,\n            uint16 numberOfBottles,\n            uint256 maturityDate,\n            bool redeemed\n        ) = wineNFT.wines(tokenId);\n\n        WineNFT.Wine memory wine = WineNFT.Wine({\n            tokenId: tokenId,\n            producer: producer,\n            price: price,\n            vintage: vintage,\n            grapeVariety: grapeVariety,\n            numberOfBottles: numberOfBottles,\n            maturityDate: maturityDate,\n            redeemed: redeemed\n        });\n        require(wine.maturityDate <= block.timestamp, \"Wine is not ready for redemption\");\n\n        wineNFT.burnWine(tokenId);\n\n        emit NFTRedeemed(tokenId, msg.sender);\n    }\n\n}\n",
  "sourcePath": "/Users/brennanlee/Desktop/vin-futures-solidity/contracts/WineMarketplace.sol",
  "compiler": {
    "name": "solc",
    "version": "0.8.28+commit.7893614a.Emscripten.clang"
  },
  "schemaVersion": "3.4.16",
  "updatedAt": "2024-10-22T12:59:11.407Z",
  "devdoc": {
    "kind": "dev",
    "methods": {},
    "version": 1
  },
  "userdoc": {
    "kind": "user",
    "methods": {},
    "version": 1
  }
}