{
  "contractName": "WineDistributor",
  "abi": [
    {
      "inputs": [
        {
          "internalType": "contract WineMarketplace",
          "name": "_marketplace",
          "type": "address"
        }
      ],
      "stateMutability": "nonpayable",
      "type": "constructor"
    },
    {
      "inputs": [],
      "name": "marketplace",
      "outputs": [
        {
          "internalType": "contract WineMarketplace",
          "name": "",
          "type": "address"
        }
      ],
      "stateMutability": "view",
      "type": "function"
    },
    {
      "inputs": [
        {
          "internalType": "uint256",
          "name": "tokenId",
          "type": "uint256"
        }
      ],
      "name": "buyWine",
      "outputs": [],
      "stateMutability": "payable",
      "type": "function"
    },
    {
      "inputs": [
        {
          "internalType": "uint256",
          "name": "tokenId",
          "type": "uint256"
        },
        {
          "internalType": "uint256",
          "name": "price",
          "type": "uint256"
        }
      ],
      "name": "listWineForSale",
      "outputs": [],
      "stateMutability": "nonpayable",
      "type": "function"
    },
    {
      "inputs": [
        {
          "internalType": "uint256",
          "name": "tokenId",
          "type": "uint256"
        }
      ],
      "name": "redeemWineNFT",
      "outputs": [],
      "stateMutability": "nonpayable",
      "type": "function"
    }
  ],
  "bytecode": "0x608060405234801561000f575f5ffd5b50604051610571380380610571833981810160405281019061003191906100e5565b805f5f6101000a81548173ffffffffffffffffffffffffffffffffffffffff021916908373ffffffffffffffffffffffffffffffffffffffff16021790555050610110565b5f5ffd5b5f73ffffffffffffffffffffffffffffffffffffffff82169050919050565b5f6100a38261007a565b9050919050565b5f6100b482610099565b9050919050565b6100c4816100aa565b81146100ce575f5ffd5b50565b5f815190506100df816100bb565b92915050565b5f602082840312156100fa576100f9610076565b5b5f610107848285016100d1565b91505092915050565b6104548061011d5f395ff3fe60806040526004361061003e575f3560e01c806336d8be1314610042578063aaec22621461006a578063abc8c7af14610092578063cbcf2349146100bc575b5f5ffd5b34801561004d575f5ffd5b50610068600480360381019061006391906102d3565b6100d8565b005b348015610075575f5ffd5b50610090600480360381019061008b9190610311565b610164565b005b34801561009d575f5ffd5b506100a66101ed565b6040516100b391906103b6565b60405180910390f35b6100d660048036038101906100d19190610311565b610211565b005b5f5f9054906101000a900473ffffffffffffffffffffffffffffffffffffffff1673ffffffffffffffffffffffffffffffffffffffff166394383f1483836040518363ffffffff1660e01b81526004016101339291906103de565b5f604051808303815f87803b15801561014a575f5ffd5b505af115801561015c573d5f5f3e3d5ffd5b505050505050565b5f5f9054906101000a900473ffffffffffffffffffffffffffffffffffffffff1673ffffffffffffffffffffffffffffffffffffffff166358dc2cdb826040518263ffffffff1660e01b81526004016101bd9190610405565b5f604051808303815f87803b1580156101d4575f5ffd5b505af11580156101e6573d5f5f3e3d5ffd5b5050505050565b5f5f9054906101000a900473ffffffffffffffffffffffffffffffffffffffff1681565b5f5f9054906101000a900473ffffffffffffffffffffffffffffffffffffffff1673ffffffffffffffffffffffffffffffffffffffff166351ed828834836040518363ffffffff1660e01b815260040161026b9190610405565b5f604051808303818588803b158015610282575f5ffd5b505af1158015610294573d5f5f3e3d5ffd5b505050505050565b5f5ffd5b5f819050919050565b6102b2816102a0565b81146102bc575f5ffd5b50565b5f813590506102cd816102a9565b92915050565b5f5f604083850312156102e9576102e861029c565b5b5f6102f6858286016102bf565b9250506020610307858286016102bf565b9150509250929050565b5f602082840312156103265761032561029c565b5b5f610333848285016102bf565b91505092915050565b5f73ffffffffffffffffffffffffffffffffffffffff82169050919050565b5f819050919050565b5f61037e6103796103748461033c565b61035b565b61033c565b9050919050565b5f61038f82610364565b9050919050565b5f6103a082610385565b9050919050565b6103b081610396565b82525050565b5f6020820190506103c95f8301846103a7565b92915050565b6103d8816102a0565b82525050565b5f6040820190506103f15f8301856103cf565b6103fe60208301846103cf565b9392505050565b5f6020820190506104185f8301846103cf565b9291505056fea26469706673582212202171ecaacd3017e4c30a8bf97d6b68a1e1fd1775557074483548c224476a292464736f6c634300081c0033",
  "immutableReferences": {},
  "source": "pragma solidity ^0.8.0;\n\nimport \"./WineMarketplace.sol\";\n\ncontract WineDistributor {\n    WineMarketplace public marketplace;\n\n    constructor(WineMarketplace _marketplace) {\n        marketplace = _marketplace;\n    }\n\n    function buyWine(uint256 tokenId) public payable {\n        marketplace.buyNFT{value: msg.value}(tokenId);\n    }\n\n    function listWineForSale(uint256 tokenId, uint256 price) public {\n        marketplace.listNFT(tokenId, price);\n    }\n\n    function redeemWineNFT(uint256 tokenId) public {\n        marketplace.redeemNFT(tokenId);\n    }\n}\n",
  "sourcePath": "/Users/brennanlee/Desktop/vin-futures-solidity/contracts/WineDistributor.sol",
  "compiler": {
    "name": "solc",
    "version": "0.8.28+commit.7893614a.Emscripten.clang"
  },
  "schemaVersion": "3.4.16",
  "updatedAt": "2024-10-22T12:59:11.406Z",
  "devdoc": {
    "kind": "dev",
    "methods": {},
    "version": 1
  },
  "userdoc": {
    "kind": "user",
    "methods": {},
    "version": 1
  }
}