{
  "contractName": "WineMarketplace",
  "abi": [
    {
      "inputs": [
        {
          "internalType": "address",
          "name": "_wineNFT",
          "type": "address"
        },
        {
          "internalType": "address",
          "name": "initialOwner",
          "type": "address"
        }
      ],
      "stateMutability": "nonpayable",
      "type": "constructor"
    },
    {
      "inputs": [
        {
          "internalType": "address",
          "name": "owner",
          "type": "address"
        }
      ],
      "name": "OwnableInvalidOwner",
      "type": "error"
    },
    {
      "inputs": [
        {
          "internalType": "address",
          "name": "account",
          "type": "address"
        }
      ],
      "name": "OwnableUnauthorizedAccount",
      "type": "error"
    },
    {
      "anonymous": false,
      "inputs": [
        {
          "indexed": true,
          "internalType": "address",
          "name": "account",
          "type": "address"
        }
      ],
      "name": "AddressRemovedFromWhitelist",
      "type": "event"
    },
    {
      "anonymous": false,
      "inputs": [
        {
          "indexed": true,
          "internalType": "address",
          "name": "account",
          "type": "address"
        }
      ],
      "name": "AddressWhitelisted",
      "type": "event"
    },
    {
      "anonymous": false,
      "inputs": [
        {
          "indexed": false,
          "internalType": "uint256",
          "name": "tokenId",
          "type": "uint256"
        },
        {
          "indexed": false,
          "internalType": "address",
          "name": "seller",
          "type": "address"
        },
        {
          "indexed": false,
          "internalType": "uint256",
          "name": "price",
          "type": "uint256"
        }
      ],
      "name": "NFTListed",
      "type": "event"
    },
    {
      "anonymous": false,
      "inputs": [
        {
          "indexed": false,
          "internalType": "uint256",
          "name": "tokenId",
          "type": "uint256"
        },
        {
          "indexed": false,
          "internalType": "address",
          "name": "buyer",
          "type": "address"
        }
      ],
      "name": "NFTPurchased",
      "type": "event"
    },
    {
      "anonymous": false,
      "inputs": [
        {
          "indexed": false,
          "internalType": "uint256",
          "name": "tokenId",
          "type": "uint256"
        },
        {
          "indexed": false,
          "internalType": "address",
          "name": "owner",
          "type": "address"
        }
      ],
      "name": "NFTRedeemed",
      "type": "event"
    },
    {
      "anonymous": false,
      "inputs": [
        {
          "indexed": true,
          "internalType": "address",
          "name": "previousOwner",
          "type": "address"
        },
        {
          "indexed": true,
          "internalType": "address",
          "name": "newOwner",
          "type": "address"
        }
      ],
      "name": "OwnershipTransferred",
      "type": "event"
    },
    {
      "inputs": [
        {
          "internalType": "uint256",
          "name": "",
          "type": "uint256"
        }
      ],
      "name": "listings",
      "outputs": [
        {
          "internalType": "uint256",
          "name": "tokenId",
          "type": "uint256"
        },
        {
          "internalType": "address",
          "name": "seller",
          "type": "address"
        },
        {
          "internalType": "uint256",
          "name": "price",
          "type": "uint256"
        }
      ],
      "stateMutability": "view",
      "type": "function",
      "constant": true
    },
    {
      "inputs": [],
      "name": "owner",
      "outputs": [
        {
          "internalType": "address",
          "name": "",
          "type": "address"
        }
      ],
      "stateMutability": "view",
      "type": "function",
      "constant": true
    },
    {
      "inputs": [],
      "name": "renounceOwnership",
      "outputs": [],
      "stateMutability": "nonpayable",
      "type": "function"
    },
    {
      "inputs": [
        {
          "internalType": "address",
          "name": "newOwner",
          "type": "address"
        }
      ],
      "name": "transferOwnership",
      "outputs": [],
      "stateMutability": "nonpayable",
      "type": "function"
    },
    {
      "inputs": [
        {
          "internalType": "address",
          "name": "",
          "type": "address"
        }
      ],
      "name": "whitelistedAddresses",
      "outputs": [
        {
          "internalType": "bool",
          "name": "",
          "type": "bool"
        }
      ],
      "stateMutability": "view",
      "type": "function",
      "constant": true
    },
    {
      "inputs": [],
      "name": "wineNFT",
      "outputs": [
        {
          "internalType": "contract WineNFT",
          "name": "",
          "type": "address"
        }
      ],
      "stateMutability": "view",
      "type": "function",
      "constant": true
    },
    {
      "inputs": [
        {
          "internalType": "address",
          "name": "account",
          "type": "address"
        }
      ],
      "name": "addAddressToWhitelist",
      "outputs": [],
      "stateMutability": "nonpayable",
      "type": "function"
    },
    {
      "inputs": [
        {
          "internalType": "address",
          "name": "account",
          "type": "address"
        }
      ],
      "name": "removeAddressFromWhitelist",
      "outputs": [],
      "stateMutability": "nonpayable",
      "type": "function"
    },
    {
      "inputs": [
        {
          "internalType": "uint256",
          "name": "tokenId",
          "type": "uint256"
        },
        {
          "internalType": "uint256",
          "name": "price",
          "type": "uint256"
        }
      ],
      "name": "listNFT",
      "outputs": [],
      "stateMutability": "nonpayable",
      "type": "function"
    },
    {
      "inputs": [
        {
          "internalType": "uint256",
          "name": "tokenId",
          "type": "uint256"
        }
      ],
      "name": "buyNFT",
      "outputs": [],
      "stateMutability": "payable",
      "type": "function",
      "payable": true
    },
    {
      "inputs": [
        {
          "internalType": "uint256",
          "name": "tokenId",
          "type": "uint256"
        }
      ],
      "name": "redeemNFT",
      "outputs": [],
      "stateMutability": "nonpayable",
      "type": "function"
    },
    {
      "inputs": [
        {
          "internalType": "uint256",
          "name": "tokenId",
          "type": "uint256"
        }
      ],
      "name": "cancelListing",
      "outputs": [],
      "stateMutability": "nonpayable",
      "type": "function"
    },
    {
      "inputs": [
        {
          "internalType": "uint256",
          "name": "tokenId",
          "type": "uint256"
        }
      ],
      "name": "isNFTListed",
      "outputs": [
        {
          "internalType": "bool",
          "name": "",
          "type": "bool"
        }
      ],
      "stateMutability": "view",
      "type": "function",
      "constant": true
    }
  ],
  "bytecode": "0x60806040523480156200001157600080fd5b50604051620025d3380380620025d3833981810160405281019062000037919062000236565b80600073ffffffffffffffffffffffffffffffffffffffff168173ffffffffffffffffffffffffffffffffffffffff1603620000ad5760006040517f1e4fbdf7000000000000000000000000000000000000000000000000000000008152600401620000a491906200028e565b60405180910390fd5b620000be816200010860201b60201c565b5081600160006101000a81548173ffffffffffffffffffffffffffffffffffffffff021916908373ffffffffffffffffffffffffffffffffffffffff1602179055505050620002ab565b60008060009054906101000a900473ffffffffffffffffffffffffffffffffffffffff169050816000806101000a81548173ffffffffffffffffffffffffffffffffffffffff021916908373ffffffffffffffffffffffffffffffffffffffff1602179055508173ffffffffffffffffffffffffffffffffffffffff168173ffffffffffffffffffffffffffffffffffffffff167f8be0079c531659141344cd1fd0a4f28419497f9722a3daafe3b4186f6b6457e060405160405180910390a35050565b600080fd5b600073ffffffffffffffffffffffffffffffffffffffff82169050919050565b6000620001fe82620001d1565b9050919050565b6200021081620001f1565b81146200021c57600080fd5b50565b600081519050620002308162000205565b92915050565b6000806040838503121562000250576200024f620001cc565b5b600062000260858286016200021f565b925050602062000273858286016200021f565b9150509250929050565b6200028881620001f1565b82525050565b6000602082019050620002a560008301846200027d565b92915050565b61231880620002bb6000396000f3fe6080604052600436106100c25760003560e01c80637b9417c81161007f578063adb78eac11610059578063adb78eac1461022f578063bc8648921461026c578063de74e57b14610297578063f2fde38b146102d6576100c2565b80637b9417c8146101b25780638da5cb5b146101db57806394383f1414610206576100c2565b806306c933d8146100c7578063286dd3f514610104578063305a67a81461012d57806351ed82881461015657806358dc2cdb14610172578063715018a61461019b575b600080fd5b3480156100d357600080fd5b506100ee60048036038101906100e99190611784565b6102ff565b6040516100fb91906117cc565b60405180910390f35b34801561011057600080fd5b5061012b60048036038101906101269190611784565b61031f565b005b34801561013957600080fd5b50610154600480360381019061014f919061181d565b6104c0565b005b610170600480360381019061016b919061181d565b6106bf565b005b34801561017e57600080fd5b506101996004803603810190610194919061181d565b610ad9565b005b3480156101a757600080fd5b506101b0610e9f565b005b3480156101be57600080fd5b506101d960048036038101906101d49190611784565b610eb3565b005b3480156101e757600080fd5b506101f0610fc8565b6040516101fd9190611859565b60405180910390f35b34801561021257600080fd5b5061022d60048036038101906102289190611874565b610ff1565b005b34801561023b57600080fd5b506102566004803603810190610251919061181d565b61145a565b60405161026391906117cc565b60405180910390f35b34801561027857600080fd5b506102816114c9565b60405161028e9190611913565b60405180910390f35b3480156102a357600080fd5b506102be60048036038101906102b9919061181d565b6114ef565b6040516102cd9392919061193d565b60405180910390f35b3480156102e257600080fd5b506102fd60048036038101906102f89190611784565b611539565b005b60036020528060005260406000206000915054906101000a900460ff1681565b6103276115bf565b600073ffffffffffffffffffffffffffffffffffffffff168173ffffffffffffffffffffffffffffffffffffffff1603610396576040517f08c379a000000000000000000000000000000000000000000000000000000000815260040161038d906119d1565b60405180910390fd5b600360008273ffffffffffffffffffffffffffffffffffffffff1673ffffffffffffffffffffffffffffffffffffffff16815260200190815260200160002060009054906101000a900460ff16610422576040517f08c379a000000000000000000000000000000000000000000000000000000000815260040161041990611a3d565b60405180910390fd5b6000600360008373ffffffffffffffffffffffffffffffffffffffff1673ffffffffffffffffffffffffffffffffffffffff16815260200190815260200160002060006101000a81548160ff0219169083151502179055508073ffffffffffffffffffffffffffffffffffffffff167f535611fb62fa2a833988f283b779e417e996813e44046f521d76c17b5943b08c60405160405180910390a250565b803373ffffffffffffffffffffffffffffffffffffffff16600160009054906101000a900473ffffffffffffffffffffffffffffffffffffffff1673ffffffffffffffffffffffffffffffffffffffff16636352211e836040518263ffffffff1660e01b81526004016105339190611a5d565b602060405180830381865afa158015610550573d6000803e3d6000fd5b505050506040513d601f19601f820116820180604052508101906105749190611a8d565b73ffffffffffffffffffffffffffffffffffffffff16146105ca576040517f08c379a00000000000000000000000000000000000000000000000000000000081526004016105c190611b2c565b60405180910390fd5b3373ffffffffffffffffffffffffffffffffffffffff166002600084815260200190815260200160002060010160009054906101000a900473ffffffffffffffffffffffffffffffffffffffff1673ffffffffffffffffffffffffffffffffffffffff161461066e576040517f08c379a000000000000000000000000000000000000000000000000000000000815260040161066590611b98565b60405180910390fd5b600260008381526020019081526020016000206000808201600090556001820160006101000a81549073ffffffffffffffffffffffffffffffffffffffff0219169055600282016000905550505050565b600360003373ffffffffffffffffffffffffffffffffffffffff1673ffffffffffffffffffffffffffffffffffffffff16815260200190815260200160002060009054906101000a900460ff1661074b576040517f08c379a000000000000000000000000000000000000000000000000000000000815260040161074290611a3d565b60405180910390fd5b600060026000838152602001908152602001600020604051806060016040529081600082015481526020016001820160009054906101000a900473ffffffffffffffffffffffffffffffffffffffff1673ffffffffffffffffffffffffffffffffffffffff1673ffffffffffffffffffffffffffffffffffffffff1681526020016002820154815250509050600073ffffffffffffffffffffffffffffffffffffffff16816020015173ffffffffffffffffffffffffffffffffffffffff160361084a576040517f08c379a000000000000000000000000000000000000000000000000000000000815260040161084190611c04565b60405180910390fd5b3373ffffffffffffffffffffffffffffffffffffffff16816020015173ffffffffffffffffffffffffffffffffffffffff16036108bc576040517f08c379a00000000000000000000000000000000000000000000000000000000081526004016108b390611c70565b60405180910390fd5b8060400151341015610903576040517f08c379a00000000000000000000000000000000000000000000000000000000081526004016108fa90611cdc565b60405180910390fd5b600081602001519050600082604001519050600260008581526020019081526020016000206000808201600090556001820160006101000a81549073ffffffffffffffffffffffffffffffffffffffff021916905560028201600090555050600160009054906101000a900473ffffffffffffffffffffffffffffffffffffffff1673ffffffffffffffffffffffffffffffffffffffff1663b7760c8f85336040518363ffffffff1660e01b81526004016109bf929190611cfc565b600060405180830381600087803b1580156109d957600080fd5b505af11580156109ed573d6000803e3d6000fd5b505050508173ffffffffffffffffffffffffffffffffffffffff166108fc829081150290604051600060405180830381858888f19350505050158015610a37573d6000803e3d6000fd5b5060008134610a469190611d54565b90506000811115610a99573373ffffffffffffffffffffffffffffffffffffffff166108fc829081150290604051600060405180830381858888f19350505050158015610a97573d6000803e3d6000fd5b505b7fbebca6653c629a651174dc2ea9b9f7ef506290dee89fe1a6087eb1e12c06d4308533604051610aca929190611cfc565b60405180910390a15050505050565b803373ffffffffffffffffffffffffffffffffffffffff16600160009054906101000a900473ffffffffffffffffffffffffffffffffffffffff1673ffffffffffffffffffffffffffffffffffffffff16636352211e836040518263ffffffff1660e01b8152600401610b4c9190611a5d565b602060405180830381865afa158015610b69573d6000803e3d6000fd5b505050506040513d601f19601f82011682018060405250810190610b8d9190611a8d565b73ffffffffffffffffffffffffffffffffffffffff1614610be3576040517f08c379a0000000000000000000000000000000000000000000000000000000008152600401610bda90611b2c565b60405180910390fd5b600360003373ffffffffffffffffffffffffffffffffffffffff1673ffffffffffffffffffffffffffffffffffffffff16815260200190815260200160002060009054906101000a900460ff16610c6f576040517f08c379a0000000000000000000000000000000000000000000000000000000008152600401610c6690611a3d565b60405180910390fd5b600160009054906101000a900473ffffffffffffffffffffffffffffffffffffffff1673ffffffffffffffffffffffffffffffffffffffff166313351db3836040518263ffffffff1660e01b8152600401610cca9190611a5d565b600060405180830381865afa925050508015610d0957506040513d6000823e3d601f19601f82011682018060405250810190610d069190611f64565b60015b610d48576040517f08c379a0000000000000000000000000000000000000000000000000000000008152600401610d3f90612096565b60405180910390fd5b42831115610d8b576040517f08c379a0000000000000000000000000000000000000000000000000000000008152600401610d8290612102565b60405180910390fd5b8115610dcc576040517f08c379a0000000000000000000000000000000000000000000000000000000008152600401610dc39061216e565b60405180910390fd5b600160009054906101000a900473ffffffffffffffffffffffffffffffffffffffff1673ffffffffffffffffffffffffffffffffffffffff1663a45aac718c6040518263ffffffff1660e01b8152600401610e279190611a5d565b600060405180830381600087803b158015610e4157600080fd5b505af1158015610e55573d6000803e3d6000fd5b505050507f7be71752f68c15e043adc3b4f121846c1f4860a79b7e8ecc932ddbc10e63b4938b33604051610e8a929190611cfc565b60405180910390a15050505050505050505050565b610ea76115bf565b610eb16000611646565b565b610ebb6115bf565b600073ffffffffffffffffffffffffffffffffffffffff168173ffffffffffffffffffffffffffffffffffffffff1603610f2a576040517f08c379a0000000000000000000000000000000000000000000000000000000008152600401610f21906119d1565b60405180910390fd5b6001600360008373ffffffffffffffffffffffffffffffffffffffff1673ffffffffffffffffffffffffffffffffffffffff16815260200190815260200160002060006101000a81548160ff0219169083151502179055508073ffffffffffffffffffffffffffffffffffffffff167f4f783c179409b4127238bc9c990bc99b9a651666a0d20b51d6c42849eb88466d60405160405180910390a250565b60008060009054906101000a900473ffffffffffffffffffffffffffffffffffffffff16905090565b813373ffffffffffffffffffffffffffffffffffffffff16600160009054906101000a900473ffffffffffffffffffffffffffffffffffffffff1673ffffffffffffffffffffffffffffffffffffffff16636352211e836040518263ffffffff1660e01b81526004016110649190611a5d565b602060405180830381865afa158015611081573d6000803e3d6000fd5b505050506040513d601f19601f820116820180604052508101906110a59190611a8d565b73ffffffffffffffffffffffffffffffffffffffff16146110fb576040517f08c379a00000000000000000000000000000000000000000000000000000000081526004016110f290611b2c565b60405180910390fd5b600360003373ffffffffffffffffffffffffffffffffffffffff1673ffffffffffffffffffffffffffffffffffffffff16815260200190815260200160002060009054906101000a900460ff16611187576040517f08c379a000000000000000000000000000000000000000000000000000000000815260040161117e90611a3d565b60405180910390fd5b600082116111ca576040517f08c379a00000000000000000000000000000000000000000000000000000000081526004016111c1906121da565b60405180910390fd5b3073ffffffffffffffffffffffffffffffffffffffff16600160009054906101000a900473ffffffffffffffffffffffffffffffffffffffff1673ffffffffffffffffffffffffffffffffffffffff1663081812fc856040518263ffffffff1660e01b815260040161123c9190611a5d565b602060405180830381865afa158015611259573d6000803e3d6000fd5b505050506040513d601f19601f8201168201806040525081019061127d9190611a8d565b73ffffffffffffffffffffffffffffffffffffffff1614806113395750600160009054906101000a900473ffffffffffffffffffffffffffffffffffffffff1673ffffffffffffffffffffffffffffffffffffffff1663e985e9c533306040518363ffffffff1660e01b81526004016112f79291906121fa565b602060405180830381865afa158015611314573d6000803e3d6000fd5b505050506040513d601f19601f820116820180604052508101906113389190612223565b5b611378576040517f08c379a000000000000000000000000000000000000000000000000000000000815260040161136f906122c2565b60405180910390fd5b60405180606001604052808481526020013373ffffffffffffffffffffffffffffffffffffffff16815260200183815250600260008581526020019081526020016000206000820151816000015560208201518160010160006101000a81548173ffffffffffffffffffffffffffffffffffffffff021916908373ffffffffffffffffffffffffffffffffffffffff160217905550604082015181600201559050507f5f9c03de076f5063cd3ebcfe8ef7aa8af378e4b35a83c77ba9777e97083879a283338460405161144d9392919061193d565b60405180910390a1505050565b60008073ffffffffffffffffffffffffffffffffffffffff166002600084815260200190815260200160002060010160009054906101000a900473ffffffffffffffffffffffffffffffffffffffff1673ffffffffffffffffffffffffffffffffffffffff1614159050919050565b600160009054906101000a900473ffffffffffffffffffffffffffffffffffffffff1681565b60026020528060005260406000206000915090508060000154908060010160009054906101000a900473ffffffffffffffffffffffffffffffffffffffff16908060020154905083565b6115416115bf565b600073ffffffffffffffffffffffffffffffffffffffff168173ffffffffffffffffffffffffffffffffffffffff16036115b35760006040517f1e4fbdf70000000000000000000000000000000000000000000000000000000081526004016115aa9190611859565b60405180910390fd5b6115bc81611646565b50565b6115c761170a565b73ffffffffffffffffffffffffffffffffffffffff166115e5610fc8565b73ffffffffffffffffffffffffffffffffffffffff16146116445761160861170a565b6040517f118cdaa700000000000000000000000000000000000000000000000000000000815260040161163b9190611859565b60405180910390fd5b565b60008060009054906101000a900473ffffffffffffffffffffffffffffffffffffffff169050816000806101000a81548173ffffffffffffffffffffffffffffffffffffffff021916908373ffffffffffffffffffffffffffffffffffffffff1602179055508173ffffffffffffffffffffffffffffffffffffffff168173ffffffffffffffffffffffffffffffffffffffff167f8be0079c531659141344cd1fd0a4f28419497f9722a3daafe3b4186f6b6457e060405160405180910390a35050565b600033905090565b6000604051905090565b600080fd5b600080fd5b600073ffffffffffffffffffffffffffffffffffffffff82169050919050565b600061175182611726565b9050919050565b61176181611746565b811461176c57600080fd5b50565b60008135905061177e81611758565b92915050565b60006020828403121561179a5761179961171c565b5b60006117a88482850161176f565b91505092915050565b60008115159050919050565b6117c6816117b1565b82525050565b60006020820190506117e160008301846117bd565b92915050565b6000819050919050565b6117fa816117e7565b811461180557600080fd5b50565b600081359050611817816117f1565b92915050565b6000602082840312156118335761183261171c565b5b600061184184828501611808565b91505092915050565b61185381611746565b82525050565b600060208201905061186e600083018461184a565b92915050565b6000806040838503121561188b5761188a61171c565b5b600061189985828601611808565b92505060206118aa85828601611808565b9150509250929050565b6000819050919050565b60006118d96118d46118cf84611726565b6118b4565b611726565b9050919050565b60006118eb826118be565b9050919050565b60006118fd826118e0565b9050919050565b61190d816118f2565b82525050565b60006020820190506119286000830184611904565b92915050565b611937816117e7565b82525050565b6000606082019050611952600083018661192e565b61195f602083018561184a565b61196c604083018461192e565b949350505050565b600082825260208201905092915050565b7f496e76616c696420616464726573730000000000000000000000000000000000600082015250565b60006119bb600f83611974565b91506119c682611985565b602082019050919050565b600060208201905081810360008301526119ea816119ae565b9050919050565b7f41646472657373206973206e6f742077686974656c6973746564000000000000600082015250565b6000611a27601a83611974565b9150611a32826119f1565b602082019050919050565b60006020820190508181036000830152611a5681611a1a565b9050919050565b6000602082019050611a72600083018461192e565b92915050565b600081519050611a8781611758565b92915050565b600060208284031215611aa357611aa261171c565b5b6000611ab184828501611a78565b91505092915050565b7f596f7520617265206e6f7420746865206f776e6572206f66207468697320746f60008201527f6b656e0000000000000000000000000000000000000000000000000000000000602082015250565b6000611b16602383611974565b9150611b2182611aba565b604082019050919050565b60006020820190508181036000830152611b4581611b09565b9050919050565b7f4e6f74207468652073656c6c6572206f662074686973204e4654000000000000600082015250565b6000611b82601a83611974565b9150611b8d82611b4c565b602082019050919050565b60006020820190508181036000830152611bb181611b75565b9050919050565b7f4e4654206e6f74206c697374656420666f722073616c65000000000000000000600082015250565b6000611bee601783611974565b9150611bf982611bb8565b602082019050919050565b60006020820190508181036000830152611c1d81611be1565b9050919050565b7f43616e6e6f742062757920796f7572206f776e204e4654000000000000000000600082015250565b6000611c5a601783611974565b9150611c6582611c24565b602082019050919050565b60006020820190508181036000830152611c8981611c4d565b9050919050565b7f496e73756666696369656e74207061796d656e74000000000000000000000000600082015250565b6000611cc6601483611974565b9150611cd182611c90565b602082019050919050565b60006020820190508181036000830152611cf581611cb9565b9050919050565b6000604082019050611d11600083018561192e565b611d1e602083018461184a565b9392505050565b7f4e487b7100000000000000000000000000000000000000000000000000000000600052601160045260246000fd5b6000611d5f826117e7565b9150611d6a836117e7565b9250828203905081811115611d8257611d81611d25565b5b92915050565b600081519050611d97816117f1565b92915050565b600061ffff82169050919050565b611db481611d9d565b8114611dbf57600080fd5b50565b600081519050611dd181611dab565b92915050565b600080fd5b600080fd5b6000601f19601f8301169050919050565b7f4e487b7100000000000000000000000000000000000000000000000000000000600052604160045260246000fd5b611e2a82611de1565b810181811067ffffffffffffffff82111715611e4957611e48611df2565b5b80604052505050565b6000611e5c611712565b9050611e688282611e21565b919050565b600067ffffffffffffffff821115611e8857611e87611df2565b5b611e9182611de1565b9050602081019050919050565b60005b83811015611ebc578082015181840152602081019050611ea1565b60008484015250505050565b6000611edb611ed684611e6d565b611e52565b905082815260208101848484011115611ef757611ef6611ddc565b5b611f02848285611e9e565b509392505050565b600082601f830112611f1f57611f1e611dd7565b5b8151611f2f848260208601611ec8565b91505092915050565b611f41816117b1565b8114611f4c57600080fd5b50565b600081519050611f5e81611f38565b92915050565b60008060008060008060008060006101208a8c031215611f8757611f8661171c565b5b6000611f958c828d01611d88565b9950506020611fa68c828d01611a78565b9850506040611fb78c828d01611d88565b9750506060611fc88c828d01611dc2565b96505060808a015167ffffffffffffffff811115611fe957611fe8611721565b5b611ff58c828d01611f0a565b95505060a06120068c828d01611dc2565b94505060c06120178c828d01611d88565b93505060e06120288c828d01611f4f565b92505061010061203a8c828d01611a78565b9150509295985092959850929598565b7f4661696c656420746f2072657472696576652077696e652064657461696c7300600082015250565b6000612080601f83611974565b915061208b8261204a565b602082019050919050565b600060208201905081810360008301526120af81612073565b9050919050565b7f57696e65206973206e6f7420726561647920666f7220726564656d7074696f6e600082015250565b60006120ec602083611974565b91506120f7826120b6565b602082019050919050565b6000602082019050818103600083015261211b816120df565b9050919050565b7f57696e6520616c72656164792072656465656d65640000000000000000000000600082015250565b6000612158601583611974565b915061216382612122565b602082019050919050565b600060208201905081810360008301526121878161214b565b9050919050565b7f5072696365206d7573742062652067726561746572207468616e203000000000600082015250565b60006121c4601c83611974565b91506121cf8261218e565b602082019050919050565b600060208201905081810360008301526121f3816121b7565b9050919050565b600060408201905061220f600083018561184a565b61221c602083018461184a565b9392505050565b6000602082840312156122395761223861171c565b5b600061224784828501611f4f565b91505092915050565b7f4d61726b6574706c616365206e6f7420617070726f76656420746f207472616e60008201527f73666572204e4654000000000000000000000000000000000000000000000000602082015250565b60006122ac602883611974565b91506122b782612250565b604082019050919050565b600060208201905081810360008301526122db8161229f565b905091905056fea2646970667358221220d7f74620e6dcb477cf046aeee1dbe74aa3e6f06174f49d1e3ddced396bee777264736f6c63430008140033",
  "immutableReferences": {},
  "source": "// SPDX-License-Identifier: MIT\r\npragma solidity ^0.8.20;\r\nimport \"./WineNFT.sol\";\r\nimport \"@openzeppelin/contracts/access/Ownable.sol\";\r\n\r\ncontract WineMarketplace is Ownable {\r\n    struct Listing {\r\n        uint256 tokenId;\r\n        address seller;\r\n        uint256 price;\r\n    }\r\n\r\n    WineNFT public wineNFT;\r\n    mapping(uint256 => Listing) public listings;\r\n\r\n    // Addresses that are whitelisted (Producer and Distributor)\r\n    mapping(address => bool) public whitelistedAddresses;\r\n\r\n    event NFTListed(uint256 tokenId, address seller, uint256 price);\r\n    event NFTPurchased(uint256 tokenId, address buyer);\r\n    event NFTRedeemed(uint256 tokenId, address owner);\r\n    event AddressWhitelisted(address indexed account);\r\n    event AddressRemovedFromWhitelist(address indexed account);\r\n\r\n    constructor(address _wineNFT, address initialOwner) Ownable(initialOwner) {\r\n        wineNFT = WineNFT(_wineNFT);\r\n    }\r\n\r\n    modifier onlyTokenOwner(uint256 tokenId) {\r\n        require(\r\n            wineNFT.ownerOf(tokenId) == msg.sender,\r\n            \"You are not the owner of this token\"\r\n        );\r\n        _;\r\n    }\r\n\r\n    modifier onlyWhitelisted() {\r\n        require(whitelistedAddresses[msg.sender], \"Address is not whitelisted\");\r\n        _;\r\n    }\r\n\r\n    function addAddressToWhitelist(address account) public onlyOwner {\r\n        require(account != address(0), \"Invalid address\");\r\n        whitelistedAddresses[account] = true;\r\n        emit AddressWhitelisted(account);\r\n    }\r\n\r\n    function removeAddressFromWhitelist(address account) public onlyOwner {\r\n        require(account != address(0), \"Invalid address\");\r\n        require(whitelistedAddresses[account], \"Address is not whitelisted\");\r\n        whitelistedAddresses[account] = false;\r\n        emit AddressRemovedFromWhitelist(account);\r\n    }\r\n\r\n    function listNFT(\r\n        uint256 tokenId,\r\n        uint256 price\r\n    ) public onlyTokenOwner(tokenId) onlyWhitelisted {\r\n        require(price > 0, \"Price must be greater than 0\");\r\n        require(\r\n            wineNFT.getApproved(tokenId) == address(this) ||\r\n                wineNFT.isApprovedForAll(msg.sender, address(this)),\r\n            \"Marketplace not approved to transfer NFT\"\r\n        );\r\n\r\n        listings[tokenId] = Listing({\r\n            tokenId: tokenId,\r\n            seller: msg.sender,\r\n            price: price\r\n        });\r\n\r\n        emit NFTListed(tokenId, msg.sender, price);\r\n    }\r\n\r\n    function buyNFT(uint256 tokenId) public payable onlyWhitelisted {\r\n        Listing memory listing = listings[tokenId];\r\n        require(listing.seller != address(0), \"NFT not listed for sale\");\r\n        require(listing.seller != msg.sender, \"Cannot buy your own NFT\");\r\n        require(msg.value >= listing.price, \"Insufficient payment\");\r\n\r\n        address payable sellerAddress = payable(listing.seller);\r\n\r\n        uint256 price = listing.price;\r\n\r\n        delete listings[tokenId];\r\n\r\n        wineNFT.transfer(tokenId, msg.sender);\r\n        sellerAddress.transfer(price);\r\n\r\n        uint256 excess = msg.value - price;\r\n        if (excess > 0) {\r\n            payable(msg.sender).transfer(excess);\r\n        }\r\n\r\n        emit NFTPurchased(tokenId, msg.sender);\r\n    }\r\n\r\n    function redeemNFT(\r\n        uint256 tokenId\r\n    ) public onlyTokenOwner(tokenId) onlyWhitelisted {\r\n        try wineNFT.wines(tokenId) returns (\r\n            uint256 /* wineId */,\r\n            address /* producer */,\r\n            uint256 /* price */,\r\n            uint16 /* vintage */,\r\n            string memory /* grapeVariety */,\r\n            uint16 /* numberOfBottles */,\r\n            uint256 maturityDate,\r\n            bool redeemed,\r\n            address /* owner */\r\n        ) {\r\n            require(\r\n                maturityDate <= block.timestamp,\r\n                \"Wine is not ready for redemption\"\r\n            );\r\n            require(!redeemed, \"Wine already redeemed\");\r\n\r\n            wineNFT.burnWine(tokenId);\r\n\r\n            emit NFTRedeemed(tokenId, msg.sender);\r\n        } catch {\r\n            revert(\"Failed to retrieve wine details\");\r\n        }\r\n    }\r\n\r\n    function cancelListing(uint256 tokenId) public onlyTokenOwner(tokenId) {\r\n        require(\r\n            listings[tokenId].seller == msg.sender,\r\n            \"Not the seller of this NFT\"\r\n        );\r\n        delete listings[tokenId];\r\n    }\r\n\r\n    function isNFTListed(uint256 tokenId) public view returns (bool) {\r\n        return listings[tokenId].seller != address(0);\r\n    }\r\n}\r\n",
  "sourcePath": "C:\\Users\\izlim\\Desktop\\Y3S1\\IS4302\\vin-futures-solidity\\contracts\\WineMarketplace.sol",
  "compiler": {
    "name": "solc",
    "version": "0.8.20+commit.a1b79de6.Emscripten.clang"
  },
  "schemaVersion": "3.4.16",
  "updatedAt": "2024-10-25T16:36:17.535Z",
  "networkType": "ethereum",
  "devdoc": {
    "errors": {
      "OwnableInvalidOwner(address)": [
        {
          "details": "The owner is not a valid owner account. (eg. `address(0)`)"
        }
      ],
      "OwnableUnauthorizedAccount(address)": [
        {
          "details": "The caller account is not authorized to perform an operation."
        }
      ]
    },
    "kind": "dev",
    "methods": {
      "owner()": {
        "details": "Returns the address of the current owner."
      },
      "renounceOwnership()": {
        "details": "Leaves the contract without owner. It will not be possible to call `onlyOwner` functions. Can only be called by the current owner. NOTE: Renouncing ownership will leave the contract without an owner, thereby disabling any functionality that is only available to the owner."
      },
      "transferOwnership(address)": {
        "details": "Transfers ownership of the contract to a new account (`newOwner`). Can only be called by the current owner."
      }
    },
    "version": 1
  },
  "userdoc": {
    "kind": "user",
    "methods": {},
    "version": 1
  }
}